{
  "_format": "hh-sol-artifact-1",
  "contractName": "MarketplaceExecutor",
  "sourceName": "contracts/MarketplaceExecutor.sol",
  "abi": [
    {
      "inputs": [
        {
          "internalType": "address",
          "name": "admin",
          "type": "address"
        },
        {
          "internalType": "address",
          "name": "_marketplace",
          "type": "address"
        }
      ],
      "stateMutability": "nonpayable",
      "type": "constructor"
    },
    {
      "inputs": [],
      "name": "AccessControlBadConfirmation",
      "type": "error"
    },
    {
      "inputs": [
        {
          "internalType": "address",
          "name": "account",
          "type": "address"
        },
        {
          "internalType": "bytes32",
          "name": "neededRole",
          "type": "bytes32"
        }
      ],
      "name": "AccessControlUnauthorizedAccount",
      "type": "error"
    },
    {
      "inputs": [],
      "name": "ReentrancyGuardReentrantCall",
      "type": "error"
    },
    {
      "anonymous": false,
      "inputs": [
        {
          "indexed": true,
          "internalType": "address",
          "name": "executor",
          "type": "address"
        },
        {
          "indexed": false,
          "internalType": "uint256",
          "name": "operationCount",
          "type": "uint256"
        }
      ],
      "name": "BatchExecuted",
      "type": "event"
    },
    {
      "anonymous": false,
      "inputs": [
        {
          "indexed": true,
          "internalType": "address",
          "name": "buyer",
          "type": "address"
        },
        {
          "indexed": false,
          "internalType": "bytes32[]",
          "name": "orderHashes",
          "type": "bytes32[]"
        },
        {
          "indexed": false,
          "internalType": "uint256",
          "name": "totalPrice",
          "type": "uint256"
        }
      ],
      "name": "BundlePurchased",
      "type": "event"
    },
    {
      "anonymous": false,
      "inputs": [
        {
          "indexed": true,
          "internalType": "bytes32",
          "name": "role",
          "type": "bytes32"
        },
        {
          "indexed": true,
          "internalType": "bytes32",
          "name": "previousAdminRole",
          "type": "bytes32"
        },
        {
          "indexed": true,
          "internalType": "bytes32",
          "name": "newAdminRole",
          "type": "bytes32"
        }
      ],
      "name": "RoleAdminChanged",
      "type": "event"
    },
    {
      "anonymous": false,
      "inputs": [
        {
          "indexed": true,
          "internalType": "bytes32",
          "name": "role",
          "type": "bytes32"
        },
        {
          "indexed": true,
          "internalType": "address",
          "name": "account",
          "type": "address"
        },
        {
          "indexed": true,
          "internalType": "address",
          "name": "sender",
          "type": "address"
        }
      ],
      "name": "RoleGranted",
      "type": "event"
    },
    {
      "anonymous": false,
      "inputs": [
        {
          "indexed": true,
          "internalType": "bytes32",
          "name": "role",
          "type": "bytes32"
        },
        {
          "indexed": true,
          "internalType": "address",
          "name": "account",
          "type": "address"
        },
        {
          "indexed": true,
          "internalType": "address",
          "name": "sender",
          "type": "address"
        }
      ],
      "name": "RoleRevoked",
      "type": "event"
    },
    {
      "inputs": [],
      "name": "ADMIN_ROLE",
      "outputs": [
        {
          "internalType": "bytes32",
          "name": "",
          "type": "bytes32"
        }
      ],
      "stateMutability": "view",
      "type": "function"
    },
    {
      "inputs": [],
      "name": "DEFAULT_ADMIN_ROLE",
      "outputs": [
        {
          "internalType": "bytes32",
          "name": "",
          "type": "bytes32"
        }
      ],
      "stateMutability": "view",
      "type": "function"
    },
    {
      "inputs": [],
      "name": "EXECUTOR_ROLE",
      "outputs": [
        {
          "internalType": "bytes32",
          "name": "",
          "type": "bytes32"
        }
      ],
      "stateMutability": "view",
      "type": "function"
    },
    {
      "inputs": [
        {
          "components": [
            {
              "internalType": "address",
              "name": "target",
              "type": "address"
            },
            {
              "internalType": "bytes",
              "name": "data",
              "type": "bytes"
            },
            {
              "internalType": "uint256",
              "name": "value",
              "type": "uint256"
            }
          ],
          "internalType": "struct MarketplaceExecutor.BatchOperation[]",
          "name": "operations",
          "type": "tuple[]"
        }
      ],
      "name": "executeBatch",
      "outputs": [],
      "stateMutability": "payable",
      "type": "function"
    },
    {
      "inputs": [
        {
          "internalType": "bytes32",
          "name": "role",
          "type": "bytes32"
        }
      ],
      "name": "getRoleAdmin",
      "outputs": [
        {
          "internalType": "bytes32",
          "name": "",
          "type": "bytes32"
        }
      ],
      "stateMutability": "view",
      "type": "function"
    },
    {
      "inputs": [
        {
          "internalType": "bytes32",
          "name": "role",
          "type": "bytes32"
        },
        {
          "internalType": "address",
          "name": "account",
          "type": "address"
        }
      ],
      "name": "grantRole",
      "outputs": [],
      "stateMutability": "nonpayable",
      "type": "function"
    },
    {
      "inputs": [
        {
          "internalType": "bytes32",
          "name": "role",
          "type": "bytes32"
        },
        {
          "internalType": "address",
          "name": "account",
          "type": "address"
        }
      ],
      "name": "hasRole",
      "outputs": [
        {
          "internalType": "bool",
          "name": "",
          "type": "bool"
        }
      ],
      "stateMutability": "view",
      "type": "function"
    },
    {
      "inputs": [],
      "name": "marketplace",
      "outputs": [
        {
          "internalType": "contract IMarketplace",
          "name": "",
          "type": "address"
        }
      ],
      "stateMutability": "view",
      "type": "function"
    },
    {
      "inputs": [
        {
          "internalType": "bytes32[]",
          "name": "orderHashes",
          "type": "bytes32[]"
        },
        {
          "internalType": "uint256",
          "name": "maxTotalPrice",
          "type": "uint256"
        }
      ],
      "name": "purchaseBundle",
      "outputs": [],
      "stateMutability": "payable",
      "type": "function"
    },
    {
      "inputs": [
        {
          "internalType": "bytes32",
          "name": "role",
          "type": "bytes32"
        },
        {
          "internalType": "address",
          "name": "callerConfirmation",
          "type": "address"
        }
      ],
      "name": "renounceRole",
      "outputs": [],
      "stateMutability": "nonpayable",
      "type": "function"
    },
    {
      "inputs": [
        {
          "internalType": "bytes32",
          "name": "role",
          "type": "bytes32"
        },
        {
          "internalType": "address",
          "name": "account",
          "type": "address"
        }
      ],
      "name": "revokeRole",
      "outputs": [],
      "stateMutability": "nonpayable",
      "type": "function"
    },
    {
      "inputs": [
        {
          "internalType": "bytes4",
          "name": "interfaceId",
          "type": "bytes4"
        }
      ],
      "name": "supportsInterface",
      "outputs": [
        {
          "internalType": "bool",
          "name": "",
          "type": "bool"
        }
      ],
      "stateMutability": "view",
      "type": "function"
    },
    {
      "inputs": [
        {
          "internalType": "address",
          "name": "collection",
          "type": "address"
        },
        {
          "internalType": "uint256[]",
          "name": "tokenIds",
          "type": "uint256[]"
        },
        {
          "internalType": "uint256",
          "name": "maxPricePerToken",
          "type": "uint256"
        }
      ],
      "name": "sweepCollection",
      "outputs": [],
      "stateMutability": "payable",
      "type": "function"
    },
    {
      "inputs": [
        {
          "internalType": "address",
          "name": "newMarketplace",
          "type": "address"
        }
      ],
      "name": "updateMarketplace",
      "outputs": [],
      "stateMutability": "nonpayable",
      "type": "function"
    },
    {
      "stateMutability": "payable",
      "type": "receive"
    }
  ],
  "bytecode": "0x60806040523480156200001157600080fd5b5060405162000ff238038062000ff2833981016040819052620000349162000193565b6001805562000045600083620000c7565b50620000727fa49807205ce4d355092ef5a8a18f56e8913cf4a201fbe287825b095693c2177583620000c7565b506200009f7fd8aa0f3194971a2a116679f7c2090f6939c8d4e01a2a8d7e41d55e5351469e6383620000c7565b50600280546001600160a01b0319166001600160a01b039290921691909117905550620001cb565b6000828152602081815260408083206001600160a01b038516845290915281205460ff166200016c576000838152602081815260408083206001600160a01b03861684529091529020805460ff19166001179055620001233390565b6001600160a01b0316826001600160a01b0316847f2f8788117e7eff1d82e926ec794901d17c78024a50270940304540a733656f0d60405160405180910390a450600162000170565b5060005b92915050565b80516001600160a01b03811681146200018e57600080fd5b919050565b60008060408385031215620001a757600080fd5b620001b28362000176565b9150620001c26020840162000176565b90509250929050565b610e1780620001db6000396000f3fe6080604052600436106100e15760003560e01c80638a89b44b1161007f578063a217fddf11610059578063a217fddf14610263578063abc8c7af14610278578063d547741f146102b0578063eb636317146102d057600080fd5b80638a89b44b1461021d57806391d148541461023057806398c150771461025057600080fd5b806329d82e9e116100bb57806329d82e9e146101945780632f2ff15d146101a957806336568abe146101c957806375b238fc146101e957600080fd5b806301ffc9a7146100ed57806307bd026514610122578063248a9ca31461016457600080fd5b366100e857005b600080fd5b3480156100f957600080fd5b5061010d6101083660046109b0565b6102f0565b60405190151581526020015b60405180910390f35b34801561012e57600080fd5b506101567fd8aa0f3194971a2a116679f7c2090f6939c8d4e01a2a8d7e41d55e5351469e6381565b604051908152602001610119565b34801561017057600080fd5b5061015661017f3660046109e1565b60009081526020819052604090206001015490565b6101a76101a2366004610a62565b610327565b005b3480156101b557600080fd5b506101a76101c4366004610abc565b610401565b3480156101d557600080fd5b506101a76101e4366004610abc565b610426565b3480156101f557600080fd5b506101567fa49807205ce4d355092ef5a8a18f56e8913cf4a201fbe287825b095693c2177581565b6101a761022b366004610ae8565b61045e565b34801561023c57600080fd5b5061010d61024b366004610abc565b610641565b6101a761025e366004610b2a565b61066a565b34801561026f57600080fd5b50610156600081565b34801561028457600080fd5b50600254610298906001600160a01b031681565b6040516001600160a01b039091168152602001610119565b3480156102bc57600080fd5b506101a76102cb366004610abc565b6107cd565b3480156102dc57600080fd5b506101a76102eb366004610b76565b6107f2565b60006001600160e01b03198216637965db0b60e01b148061032157506301ffc9a760e01b6001600160e01b03198316145b92915050565b61032f61083f565b816103925760405162461bcd60e51b815260206004820152602860248201527f4d61726b6574706c6163654578656375746f723a204e6f20746f6b656e7320736044820152671c1958da599a595960c21b60648201526084015b60405180910390fd5b6000805b838110156103b057806103a881610ba7565b915050610396565b50803411156103f157336108fc6103c78334610bc0565b6040518115909202916000818181858888f193505050501580156103ef573d6000803e3d6000fd5b505b506103fb60018055565b50505050565b60008281526020819052604090206001015461041c81610869565b6103fb8383610876565b6001600160a01b038116331461044f5760405163334bd91960e11b815260040160405180910390fd5b6104598282610908565b505050565b7fd8aa0f3194971a2a116679f7c2090f6939c8d4e01a2a8d7e41d55e5351469e6361048881610869565b61049061083f565b816104e85760405162461bcd60e51b815260206004820152602260248201527f4d61726b6574706c6163654578656375746f723a204e6f206f7065726174696f6044820152616e7360f01b6064820152608401610389565b60005b8281101561060157600084848381811061050757610507610bd3565b90506020028101906105199190610be9565b61052290610c79565b9050600081600001516001600160a01b03168260400151836020015160405161054b9190610d30565b60006040518083038185875af1925050503d8060008114610588576040519150601f19603f3d011682016040523d82523d6000602084013e61058d565b606091505b50509050806105ec5760405162461bcd60e51b815260206004820152602560248201527f4d61726b6574706c6163654578656375746f723a204f7065726174696f6e2066604482015264185a5b195960da1b6064820152608401610389565b505080806105f990610ba7565b9150506104eb565b5060405182815233907f7ffb1df8fb1cb14bf915045200c5b519c9cdd3c996c3fa9e781810674194029c906020015b60405180910390a261045960018055565b6000918252602082815260408084206001600160a01b0393909316845291905290205460ff1690565b61067261083f565b600182116106cc5760405162461bcd60e51b815260206004820152602160248201527f4d61726b6574706c6163654578656375746f723a204e6f7420612062756e646c6044820152606560f81b6064820152608401610389565b803411156107285760405162461bcd60e51b815260206004820152602360248201527f4d61726b6574706c6163654578656375746f723a20507269636520657863656560448201526219195960ea1b6064820152608401610389565b6002546040516338a4235f60e21b81526001600160a01b039091169063e2908d7c90349061075e90879087903390600401610d91565b6000604051808303818588803b15801561077757600080fd5b505af115801561078b573d6000803e3d6000fd5b5050505050336001600160a01b03167ffbf3fabc212a6bd71819eb363856d693d668177b174914dc73b0d84c851912bb84843460405161063093929190610dbd565b6000828152602081905260409020600101546107e881610869565b6103fb8383610908565b7fa49807205ce4d355092ef5a8a18f56e8913cf4a201fbe287825b095693c2177561081c81610869565b50600280546001600160a01b0319166001600160a01b0392909216919091179055565b60026001540361086257604051633ee5aeb560e01b815260040160405180910390fd5b6002600155565b6108738133610973565b50565b60006108828383610641565b610900576000838152602081815260408083206001600160a01b03861684529091529020805460ff191660011790556108b83390565b6001600160a01b0316826001600160a01b0316847f2f8788117e7eff1d82e926ec794901d17c78024a50270940304540a733656f0d60405160405180910390a4506001610321565b506000610321565b60006109148383610641565b15610900576000838152602081815260408083206001600160a01b0386168085529252808320805460ff1916905551339286917ff6391f5c32d9c69d2a47ea670b442974b53935d1edc7fd64eb21e047a839171b9190a4506001610321565b61097d8282610641565b6109ac5760405163e2517d3f60e01b81526001600160a01b038216600482015260248101839052604401610389565b5050565b6000602082840312156109c257600080fd5b81356001600160e01b0319811681146109da57600080fd5b9392505050565b6000602082840312156109f357600080fd5b5035919050565b80356001600160a01b0381168114610a1157600080fd5b919050565b60008083601f840112610a2857600080fd5b50813567ffffffffffffffff811115610a4057600080fd5b6020830191508360208260051b8501011115610a5b57600080fd5b9250929050565b60008060008060608587031215610a7857600080fd5b610a81856109fa565b9350602085013567ffffffffffffffff811115610a9d57600080fd5b610aa987828801610a16565b9598909750949560400135949350505050565b60008060408385031215610acf57600080fd5b82359150610adf602084016109fa565b90509250929050565b60008060208385031215610afb57600080fd5b823567ffffffffffffffff811115610b1257600080fd5b610b1e85828601610a16565b90969095509350505050565b600080600060408486031215610b3f57600080fd5b833567ffffffffffffffff811115610b5657600080fd5b610b6286828701610a16565b909790965060209590950135949350505050565b600060208284031215610b8857600080fd5b6109da826109fa565b634e487b7160e01b600052601160045260246000fd5b600060018201610bb957610bb9610b91565b5060010190565b8181038181111561032157610321610b91565b634e487b7160e01b600052603260045260246000fd5b60008235605e19833603018112610bff57600080fd5b9190910192915050565b634e487b7160e01b600052604160045260246000fd5b6040516060810167ffffffffffffffff81118282101715610c4257610c42610c09565b60405290565b604051601f8201601f1916810167ffffffffffffffff81118282101715610c7157610c71610c09565b604052919050565b600060608236031215610c8b57600080fd5b610c93610c1f565b610c9c836109fa565b815260208084013567ffffffffffffffff80821115610cba57600080fd5b9085019036601f830112610ccd57600080fd5b813581811115610cdf57610cdf610c09565b610cf1601f8201601f19168501610c48565b91508082523684828501011115610d0757600080fd5b808484018584013760009082018401529183019190915250604092830135928101929092525090565b6000825160005b81811015610d515760208186018101518583015201610d37565b506000920191825250919050565b81835260006001600160fb1b03831115610d7857600080fd5b8260051b80836020870137939093016020019392505050565b604081526000610da5604083018587610d5f565b905060018060a01b0383166020830152949350505050565b604081526000610dd1604083018587610d5f565b905082602083015294935050505056fea2646970667358221220d2a5bf71880ab1f3096314445aa023928d0d0547bf53462e67564431387a733764736f6c63430008140033",
  "linkReferences": {},
  "deployedLinkReferences": {}
}