{
  "_format": "hh-sol-artifact-1",
  "contractName": "TitleNFT",
  "sourceName": "contracts/TitleNFT.sol",
  "abi": [
    {
      "inputs": [
        {
          "internalType": "string",
          "name": "name",
          "type": "string"
        },
        {
          "internalType": "string",
          "name": "symbol",
          "type": "string"
        },
        {
          "internalType": "address",
          "name": "admin",
          "type": "address"
        },
        {
          "internalType": "address",
          "name": "_marketplaceGuard",
          "type": "address"
        },
        {
          "internalType": "address",
          "name": "_fractionalPropertyContract",
          "type": "address"
        }
      ],
      "stateMutability": "nonpayable",
      "type": "constructor"
    },
    {
      "inputs": [],
      "name": "AccessControlBadConfirmation",
      "type": "error"
    },
    {
      "inputs": [
        {
          "internalType": "address",
          "name": "account",
          "type": "address"
        },
        {
          "internalType": "bytes32",
          "name": "neededRole",
          "type": "bytes32"
        }
      ],
      "name": "AccessControlUnauthorizedAccount",
      "type": "error"
    },
    {
      "inputs": [
        {
          "internalType": "address",
          "name": "sender",
          "type": "address"
        },
        {
          "internalType": "uint256",
          "name": "tokenId",
          "type": "uint256"
        },
        {
          "internalType": "address",
          "name": "owner",
          "type": "address"
        }
      ],
      "name": "ERC721IncorrectOwner",
      "type": "error"
    },
    {
      "inputs": [
        {
          "internalType": "address",
          "name": "operator",
          "type": "address"
        },
        {
          "internalType": "uint256",
          "name": "tokenId",
          "type": "uint256"
        }
      ],
      "name": "ERC721InsufficientApproval",
      "type": "error"
    },
    {
      "inputs": [
        {
          "internalType": "address",
          "name": "approver",
          "type": "address"
        }
      ],
      "name": "ERC721InvalidApprover",
      "type": "error"
    },
    {
      "inputs": [
        {
          "internalType": "address",
          "name": "operator",
          "type": "address"
        }
      ],
      "name": "ERC721InvalidOperator",
      "type": "error"
    },
    {
      "inputs": [
        {
          "internalType": "address",
          "name": "owner",
          "type": "address"
        }
      ],
      "name": "ERC721InvalidOwner",
      "type": "error"
    },
    {
      "inputs": [
        {
          "internalType": "address",
          "name": "receiver",
          "type": "address"
        }
      ],
      "name": "ERC721InvalidReceiver",
      "type": "error"
    },
    {
      "inputs": [
        {
          "internalType": "address",
          "name": "sender",
          "type": "address"
        }
      ],
      "name": "ERC721InvalidSender",
      "type": "error"
    },
    {
      "inputs": [
        {
          "internalType": "uint256",
          "name": "tokenId",
          "type": "uint256"
        }
      ],
      "name": "ERC721NonexistentToken",
      "type": "error"
    },
    {
      "inputs": [],
      "name": "ReentrancyGuardReentrantCall",
      "type": "error"
    },
    {
      "anonymous": false,
      "inputs": [
        {
          "indexed": true,
          "internalType": "address",
          "name": "owner",
          "type": "address"
        },
        {
          "indexed": true,
          "internalType": "address",
          "name": "approved",
          "type": "address"
        },
        {
          "indexed": true,
          "internalType": "uint256",
          "name": "tokenId",
          "type": "uint256"
        }
      ],
      "name": "Approval",
      "type": "event"
    },
    {
      "anonymous": false,
      "inputs": [
        {
          "indexed": true,
          "internalType": "address",
          "name": "owner",
          "type": "address"
        },
        {
          "indexed": true,
          "internalType": "address",
          "name": "operator",
          "type": "address"
        },
        {
          "indexed": false,
          "internalType": "bool",
          "name": "approved",
          "type": "bool"
        }
      ],
      "name": "ApprovalForAll",
      "type": "event"
    },
    {
      "anonymous": false,
      "inputs": [
        {
          "indexed": false,
          "internalType": "uint256",
          "name": "_fromTokenId",
          "type": "uint256"
        },
        {
          "indexed": false,
          "internalType": "uint256",
          "name": "_toTokenId",
          "type": "uint256"
        }
      ],
      "name": "BatchMetadataUpdate",
      "type": "event"
    },
    {
      "anonymous": false,
      "inputs": [
        {
          "indexed": false,
          "internalType": "uint256",
          "name": "_tokenId",
          "type": "uint256"
        }
      ],
      "name": "MetadataUpdate",
      "type": "event"
    },
    {
      "anonymous": false,
      "inputs": [
        {
          "indexed": true,
          "internalType": "uint256",
          "name": "tokenId",
          "type": "uint256"
        },
        {
          "indexed": false,
          "internalType": "bytes32",
          "name": "newDocumentHash",
          "type": "bytes32"
        }
      ],
      "name": "MetadataUpdated",
      "type": "event"
    },
    {
      "anonymous": false,
      "inputs": [
        {
          "indexed": true,
          "internalType": "bytes32",
          "name": "role",
          "type": "bytes32"
        },
        {
          "indexed": true,
          "internalType": "bytes32",
          "name": "previousAdminRole",
          "type": "bytes32"
        },
        {
          "indexed": true,
          "internalType": "bytes32",
          "name": "newAdminRole",
          "type": "bytes32"
        }
      ],
      "name": "RoleAdminChanged",
      "type": "event"
    },
    {
      "anonymous": false,
      "inputs": [
        {
          "indexed": true,
          "internalType": "bytes32",
          "name": "role",
          "type": "bytes32"
        },
        {
          "indexed": true,
          "internalType": "address",
          "name": "account",
          "type": "address"
        },
        {
          "indexed": true,
          "internalType": "address",
          "name": "sender",
          "type": "address"
        }
      ],
      "name": "RoleGranted",
      "type": "event"
    },
    {
      "anonymous": false,
      "inputs": [
        {
          "indexed": true,
          "internalType": "bytes32",
          "name": "role",
          "type": "bytes32"
        },
        {
          "indexed": true,
          "internalType": "address",
          "name": "account",
          "type": "address"
        },
        {
          "indexed": true,
          "internalType": "address",
          "name": "sender",
          "type": "address"
        }
      ],
      "name": "RoleRevoked",
      "type": "event"
    },
    {
      "anonymous": false,
      "inputs": [
        {
          "indexed": true,
          "internalType": "uint256",
          "name": "tokenId",
          "type": "uint256"
        },
        {
          "indexed": true,
          "internalType": "uint256",
          "name": "fractionalTokenId",
          "type": "uint256"
        }
      ],
      "name": "TitleLinkedToFractional",
      "type": "event"
    },
    {
      "anonymous": false,
      "inputs": [
        {
          "indexed": true,
          "internalType": "uint256",
          "name": "tokenId",
          "type": "uint256"
        },
        {
          "indexed": true,
          "internalType": "address",
          "name": "owner",
          "type": "address"
        },
        {
          "indexed": false,
          "internalType": "string",
          "name": "propertyId",
          "type": "string"
        }
      ],
      "name": "TitleMinted",
      "type": "event"
    },
    {
      "anonymous": false,
      "inputs": [
        {
          "indexed": true,
          "internalType": "uint256",
          "name": "tokenId",
          "type": "uint256"
        },
        {
          "indexed": true,
          "internalType": "address",
          "name": "verifier",
          "type": "address"
        }
      ],
      "name": "TitleVerified",
      "type": "event"
    },
    {
      "anonymous": false,
      "inputs": [
        {
          "indexed": true,
          "internalType": "address",
          "name": "from",
          "type": "address"
        },
        {
          "indexed": true,
          "internalType": "address",
          "name": "to",
          "type": "address"
        },
        {
          "indexed": true,
          "internalType": "uint256",
          "name": "tokenId",
          "type": "uint256"
        }
      ],
      "name": "Transfer",
      "type": "event"
    },
    {
      "inputs": [],
      "name": "DEFAULT_ADMIN_ROLE",
      "outputs": [
        {
          "internalType": "bytes32",
          "name": "",
          "type": "bytes32"
        }
      ],
      "stateMutability": "view",
      "type": "function"
    },
    {
      "inputs": [],
      "name": "METADATA_UPDATER_ROLE",
      "outputs": [
        {
          "internalType": "bytes32",
          "name": "",
          "type": "bytes32"
        }
      ],
      "stateMutability": "view",
      "type": "function"
    },
    {
      "inputs": [],
      "name": "MINTER_ROLE",
      "outputs": [
        {
          "internalType": "bytes32",
          "name": "",
          "type": "bytes32"
        }
      ],
      "stateMutability": "view",
      "type": "function"
    },
    {
      "inputs": [],
      "name": "VERIFIER_ROLE",
      "outputs": [
        {
          "internalType": "bytes32",
          "name": "",
          "type": "bytes32"
        }
      ],
      "stateMutability": "view",
      "type": "function"
    },
    {
      "inputs": [
        {
          "internalType": "address",
          "name": "to",
          "type": "address"
        },
        {
          "internalType": "uint256",
          "name": "tokenId",
          "type": "uint256"
        }
      ],
      "name": "approve",
      "outputs": [],
      "stateMutability": "nonpayable",
      "type": "function"
    },
    {
      "inputs": [
        {
          "internalType": "address",
          "name": "owner",
          "type": "address"
        }
      ],
      "name": "balanceOf",
      "outputs": [
        {
          "internalType": "uint256",
          "name": "",
          "type": "uint256"
        }
      ],
      "stateMutability": "view",
      "type": "function"
    },
    {
      "inputs": [],
      "name": "fractionalPropertyContract",
      "outputs": [
        {
          "internalType": "address",
          "name": "",
          "type": "address"
        }
      ],
      "stateMutability": "view",
      "type": "function"
    },
    {
      "inputs": [
        {
          "internalType": "uint256",
          "name": "tokenId",
          "type": "uint256"
        }
      ],
      "name": "getApproved",
      "outputs": [
        {
          "internalType": "address",
          "name": "",
          "type": "address"
        }
      ],
      "stateMutability": "view",
      "type": "function"
    },
    {
      "inputs": [
        {
          "internalType": "bytes32",
          "name": "role",
          "type": "bytes32"
        }
      ],
      "name": "getRoleAdmin",
      "outputs": [
        {
          "internalType": "bytes32",
          "name": "",
          "type": "bytes32"
        }
      ],
      "stateMutability": "view",
      "type": "function"
    },
    {
      "inputs": [
        {
          "internalType": "uint256",
          "name": "tokenId",
          "type": "uint256"
        }
      ],
      "name": "getTitleMetadata",
      "outputs": [
        {
          "components": [
            {
              "internalType": "string",
              "name": "propertyId",
              "type": "string"
            },
            {
              "internalType": "string",
              "name": "legalDescription",
              "type": "string"
            },
            {
              "internalType": "uint256",
              "name": "assessedValue",
              "type": "uint256"
            },
            {
              "internalType": "string",
              "name": "jurisdiction",
              "type": "string"
            },
            {
              "internalType": "bytes32",
              "name": "documentHash",
              "type": "bytes32"
            },
            {
              "internalType": "bool",
              "name": "isVerified",
              "type": "bool"
            }
          ],
          "internalType": "struct ITitleNFT.TitleMetadata",
          "name": "",
          "type": "tuple"
        }
      ],
      "stateMutability": "view",
      "type": "function"
    },
    {
      "inputs": [
        {
          "internalType": "bytes32",
          "name": "role",
          "type": "bytes32"
        },
        {
          "internalType": "address",
          "name": "account",
          "type": "address"
        }
      ],
      "name": "grantRole",
      "outputs": [],
      "stateMutability": "nonpayable",
      "type": "function"
    },
    {
      "inputs": [
        {
          "internalType": "bytes32",
          "name": "role",
          "type": "bytes32"
        },
        {
          "internalType": "address",
          "name": "account",
          "type": "address"
        }
      ],
      "name": "hasRole",
      "outputs": [
        {
          "internalType": "bool",
          "name": "",
          "type": "bool"
        }
      ],
      "stateMutability": "view",
      "type": "function"
    },
    {
      "inputs": [
        {
          "internalType": "address",
          "name": "owner",
          "type": "address"
        },
        {
          "internalType": "address",
          "name": "operator",
          "type": "address"
        }
      ],
      "name": "isApprovedForAll",
      "outputs": [
        {
          "internalType": "bool",
          "name": "",
          "type": "bool"
        }
      ],
      "stateMutability": "view",
      "type": "function"
    },
    {
      "inputs": [
        {
          "internalType": "uint256",
          "name": "tokenId",
          "type": "uint256"
        }
      ],
      "name": "isVerified",
      "outputs": [
        {
          "internalType": "bool",
          "name": "",
          "type": "bool"
        }
      ],
      "stateMutability": "view",
      "type": "function"
    },
    {
      "inputs": [
        {
          "internalType": "uint256",
          "name": "tokenId",
          "type": "uint256"
        },
        {
          "internalType": "uint256",
          "name": "fractionalTokenId",
          "type": "uint256"
        }
      ],
      "name": "linkToFractionalProperty",
      "outputs": [],
      "stateMutability": "nonpayable",
      "type": "function"
    },
    {
      "inputs": [],
      "name": "marketplaceGuard",
      "outputs": [
        {
          "internalType": "address",
          "name": "",
          "type": "address"
        }
      ],
      "stateMutability": "view",
      "type": "function"
    },
    {
      "inputs": [
        {
          "internalType": "address",
          "name": "to",
          "type": "address"
        },
        {
          "internalType": "string",
          "name": "propertyId",
          "type": "string"
        },
        {
          "internalType": "string",
          "name": "legalDescription",
          "type": "string"
        },
        {
          "internalType": "uint256",
          "name": "assessedValue",
          "type": "uint256"
        },
        {
          "internalType": "string",
          "name": "jurisdiction",
          "type": "string"
        },
        {
          "internalType": "bytes32",
          "name": "documentHash",
          "type": "bytes32"
        }
      ],
      "name": "mintTitle",
      "outputs": [
        {
          "internalType": "uint256",
          "name": "tokenId",
          "type": "uint256"
        }
      ],
      "stateMutability": "nonpayable",
      "type": "function"
    },
    {
      "inputs": [],
      "name": "name",
      "outputs": [
        {
          "internalType": "string",
          "name": "",
          "type": "string"
        }
      ],
      "stateMutability": "view",
      "type": "function"
    },
    {
      "inputs": [
        {
          "internalType": "uint256",
          "name": "tokenId",
          "type": "uint256"
        }
      ],
      "name": "ownerOf",
      "outputs": [
        {
          "internalType": "address",
          "name": "",
          "type": "address"
        }
      ],
      "stateMutability": "view",
      "type": "function"
    },
    {
      "inputs": [
        {
          "internalType": "bytes32",
          "name": "role",
          "type": "bytes32"
        },
        {
          "internalType": "address",
          "name": "callerConfirmation",
          "type": "address"
        }
      ],
      "name": "renounceRole",
      "outputs": [],
      "stateMutability": "nonpayable",
      "type": "function"
    },
    {
      "inputs": [
        {
          "internalType": "bytes32",
          "name": "role",
          "type": "bytes32"
        },
        {
          "internalType": "address",
          "name": "account",
          "type": "address"
        }
      ],
      "name": "revokeRole",
      "outputs": [],
      "stateMutability": "nonpayable",
      "type": "function"
    },
    {
      "inputs": [
        {
          "internalType": "address",
          "name": "from",
          "type": "address"
        },
        {
          "internalType": "address",
          "name": "to",
          "type": "address"
        },
        {
          "internalType": "uint256",
          "name": "tokenId",
          "type": "uint256"
        }
      ],
      "name": "safeTransferFrom",
      "outputs": [],
      "stateMutability": "nonpayable",
      "type": "function"
    },
    {
      "inputs": [
        {
          "internalType": "address",
          "name": "from",
          "type": "address"
        },
        {
          "internalType": "address",
          "name": "to",
          "type": "address"
        },
        {
          "internalType": "uint256",
          "name": "tokenId",
          "type": "uint256"
        },
        {
          "internalType": "bytes",
          "name": "data",
          "type": "bytes"
        }
      ],
      "name": "safeTransferFrom",
      "outputs": [],
      "stateMutability": "nonpayable",
      "type": "function"
    },
    {
      "inputs": [
        {
          "internalType": "address",
          "name": "operator",
          "type": "address"
        },
        {
          "internalType": "bool",
          "name": "approved",
          "type": "bool"
        }
      ],
      "name": "setApprovalForAll",
      "outputs": [],
      "stateMutability": "nonpayable",
      "type": "function"
    },
    {
      "inputs": [
        {
          "internalType": "bytes4",
          "name": "interfaceId",
          "type": "bytes4"
        }
      ],
      "name": "supportsInterface",
      "outputs": [
        {
          "internalType": "bool",
          "name": "",
          "type": "bool"
        }
      ],
      "stateMutability": "view",
      "type": "function"
    },
    {
      "inputs": [],
      "name": "symbol",
      "outputs": [
        {
          "internalType": "string",
          "name": "",
          "type": "string"
        }
      ],
      "stateMutability": "view",
      "type": "function"
    },
    {
      "inputs": [
        {
          "internalType": "uint256",
          "name": "tokenId",
          "type": "uint256"
        }
      ],
      "name": "tokenURI",
      "outputs": [
        {
          "internalType": "string",
          "name": "",
          "type": "string"
        }
      ],
      "stateMutability": "view",
      "type": "function"
    },
    {
      "inputs": [
        {
          "internalType": "address",
          "name": "from",
          "type": "address"
        },
        {
          "internalType": "address",
          "name": "to",
          "type": "address"
        },
        {
          "internalType": "uint256",
          "name": "tokenId",
          "type": "uint256"
        }
      ],
      "name": "transferFrom",
      "outputs": [],
      "stateMutability": "nonpayable",
      "type": "function"
    },
    {
      "inputs": [
        {
          "internalType": "uint256",
          "name": "tokenId",
          "type": "uint256"
        },
        {
          "internalType": "bytes32",
          "name": "newDocumentHash",
          "type": "bytes32"
        }
      ],
      "name": "updateMetadata",
      "outputs": [],
      "stateMutability": "nonpayable",
      "type": "function"
    },
    {
      "inputs": [
        {
          "internalType": "uint256",
          "name": "tokenId",
          "type": "uint256"
        }
      ],
      "name": "verifyTitle",
      "outputs": [],
      "stateMutability": "nonpayable",
      "type": "function"
    }
  ],
  "bytecode": "0x608060405260016009553480156200001657600080fd5b5060405162002729380380620027298339810160408190526200003991620002c0565b84846000620000498382620003f1565b506001620000588282620003f1565b50506001600855506200006d6000846200012b565b506200009a7f9f2df0fed2c77648de5860a4cc508cd0818c85b8b8a1ab4ceeef8d981c8956a6846200012b565b50620000c77f0ce23c3e399818cfee81a7ab0880f714e53d7672b08df0fa62f2843416e1ea09846200012b565b50620000f47f7f5260842512b02356ff92de24be96e7e1aac2e234d9371b076ac2b4cddda61e846200012b565b50600c80546001600160a01b039384166001600160a01b031991821617909155600d805492909316911617905550620004bd915050565b60008281526007602090815260408083206001600160a01b038516845290915281205460ff16620001d45760008381526007602090815260408083206001600160a01b03861684529091529020805460ff191660011790556200018b3390565b6001600160a01b0316826001600160a01b0316847f2f8788117e7eff1d82e926ec794901d17c78024a50270940304540a733656f0d60405160405180910390a4506001620001d8565b5060005b92915050565b634e487b7160e01b600052604160045260246000fd5b600082601f8301126200020657600080fd5b81516001600160401b0380821115620002235762000223620001de565b604051601f8301601f19908116603f011681019082821181831017156200024e576200024e620001de565b816040528381526020925086838588010111156200026b57600080fd5b600091505b838210156200028f578582018301518183018401529082019062000270565b600093810190920192909252949350505050565b80516001600160a01b0381168114620002bb57600080fd5b919050565b600080600080600060a08688031215620002d957600080fd5b85516001600160401b0380821115620002f157600080fd5b620002ff89838a01620001f4565b965060208801519150808211156200031657600080fd5b506200032588828901620001f4565b9450506200033660408701620002a3565b92506200034660608701620002a3565b91506200035660808701620002a3565b90509295509295909350565b600181811c908216806200037757607f821691505b6020821081036200039857634e487b7160e01b600052602260045260246000fd5b50919050565b601f821115620003ec57600081815260208120601f850160051c81016020861015620003c75750805b601f850160051c820191505b81811015620003e857828155600101620003d3565b5050505b505050565b81516001600160401b038111156200040d576200040d620001de565b62000425816200041e845462000362565b846200039e565b602080601f8311600181146200045d5760008415620004445750858301515b600019600386901b1c1916600185901b178555620003e8565b600085815260208120601f198616915b828110156200048e578886015182559484019460019091019084016200046d565b5085821015620004ad5787850151600019600388901b60f8161c191681555b5050505050600190811b01905550565b61225c80620004cd6000396000f3fe608060405234801561001057600080fd5b50600436106101d95760003560e01c80638902575011610104578063aff819df116100a2578063d547741f11610071578063d547741f1461042d578063da9e904814610440578063e7705db614610460578063e985e9c51461048757600080fd5b8063aff819df146103cd578063b88d4fde146103e0578063c87b56dd146103f3578063d53913931461040657600080fd5b80639d154f82116100de5780639d154f821461038c578063a217fddf1461039f578063a22cb465146103a7578063ae16b152146103ba57600080fd5b8063890257501461034a57806391d148541461037157806395d89b411461038457600080fd5b8063248a9ca31161017c57806342842e0e1161014b57806342842e0e146102fe5780634aceda18146103115780636352211e1461032457806370a082311461033757600080fd5b8063248a9ca3146102945780632f2ff15d146102c557806336568abe146102d857806337b6d96b146102eb57600080fd5b806306fdde03116101b857806306fdde031461022e578063081812fc14610243578063095ea7b31461026e57806323b872dd1461028157600080fd5b8062f8a45e146101de578063019f7f7b146101f357806301ffc9a714610206575b600080fd5b6101f16101ec366004611b1e565b61049a565b005b6101f1610201366004611b1e565b610511565b610219610214366004611b56565b6105c1565b60405190151581526020015b60405180910390f35b6102366105ec565b6040516102259190611bc3565b610256610251366004611bd6565b61067e565b6040516001600160a01b039091168152602001610225565b6101f161027c366004611c0b565b6106a7565b6101f161028f366004611c35565b6106b6565b6102b76102a2366004611bd6565b60009081526007602052604090206001015490565b604051908152602001610225565b6101f16102d3366004611c71565b610741565b6101f16102e6366004611c71565b610766565b6102196102f9366004611bd6565b61079e565b6101f161030c366004611c35565b6107e9565b600d54610256906001600160a01b031681565b610256610332366004611bd6565b610804565b6102b7610345366004611c9d565b61080f565b6102b77f7f5260842512b02356ff92de24be96e7e1aac2e234d9371b076ac2b4cddda61e81565b61021961037f366004611c71565b610857565b610236610882565b600c54610256906001600160a01b031681565b6102b7600081565b6101f16103b5366004611cc6565b610891565b6101f16103c8366004611bd6565b61089c565b6102b76103db366004611d46565b6109a3565b6101f16103ee366004611e18565b610ce9565b610236610401366004611bd6565b610d01565b6102b77f9f2df0fed2c77648de5860a4cc508cd0818c85b8b8a1ab4ceeef8d981c8956a681565b6101f161043b366004611c71565b610d0c565b61045361044e366004611bd6565b610d31565b6040516102259190611ef4565b6102b77f0ce23c3e399818cfee81a7ab0880f714e53d7672b08df0fa62f2843416e1ea0981565b610219610495366004611f79565b610f89565b60006104a581610fb7565b60006104b084610fc4565b6001600160a01b0316036104df5760405162461bcd60e51b81526004016104d690611fa3565b60405180910390fd5b604051829084907fca366bcd9ad6a8c56bdd9b679d637ed2f69d1f7af7ac31b59a5a636cc0c797cb90600090a3505050565b7f7f5260842512b02356ff92de24be96e7e1aac2e234d9371b076ac2b4cddda61e61053b81610fb7565b600061054684610fc4565b6001600160a01b03160361056c5760405162461bcd60e51b81526004016104d690611fa3565b6000838152600a6020526040908190206004018390555183907f9c06c04824dfb4ebf41804d51120c24a2ab63d6230efe7b7bc5a199f837dd3ad906105b49085815260200190565b60405180910390a2505050565b60006001600160e01b0319821663ed599ed560e01b14806105e657506105e682610fdf565b92915050565b6060600080546105fb90611fda565b80601f016020809104026020016040519081016040528092919081815260200182805461062790611fda565b80156106745780601f1061064957610100808354040283529160200191610674565b820191906000526020600020905b81548152906001019060200180831161065757829003601f168201915b5050505050905090565b600061068982611004565b506000828152600460205260409020546001600160a01b03166105e6565b6106b282823361103c565b5050565b6001600160a01b0382166106e057604051633250574960e11b8152600060048201526024016104d6565b60006106ed838333611049565b9050836001600160a01b0316816001600160a01b03161461073b576040516364283d7b60e01b81526001600160a01b03808616600483015260248201849052821660448201526064016104d6565b50505050565b60008281526007602052604090206001015461075c81610fb7565b61073b838361115c565b6001600160a01b038116331461078f5760405163334bd91960e11b815260040160405180910390fd5b61079982826111f0565b505050565b6000806107aa83610fc4565b6001600160a01b0316036107d05760405162461bcd60e51b81526004016104d690611fa3565b506000908152600a602052604090206005015460ff1690565b61079983838360405180602001604052806000815250610ce9565b60006105e682611004565b60006001600160a01b03821661083b576040516322718ad960e21b8152600060048201526024016104d6565b506001600160a01b031660009081526003602052604090205490565b60009182526007602090815260408084206001600160a01b0393909316845291905290205460ff1690565b6060600180546105fb90611fda565b6106b233838361125d565b7f0ce23c3e399818cfee81a7ab0880f714e53d7672b08df0fa62f2843416e1ea096108c681610fb7565b60006108d183610fc4565b6001600160a01b0316036108f75760405162461bcd60e51b81526004016104d690611fa3565b6000828152600a602052604090206005015460ff16156109595760405162461bcd60e51b815260206004820181905260248201527f5469746c654e46543a205469746c6520616c726561647920766572696669656460448201526064016104d6565b6000828152600a6020526040808220600501805460ff1916600117905551339184917ffd335eb93011e1eae6a8fcfefbbcc83b39b3d7bd90868c0e30dfe73c5f817e229190a35050565b60007f9f2df0fed2c77648de5860a4cc508cd0818c85b8b8a1ab4ceeef8d981c8956a66109cf81610fb7565b600b8a8a6040516109e1929190612014565b9081526040519081900360200190205460ff1615610a4d5760405162461bcd60e51b8152602060048201526024808201527f5469746c654e46543a2050726f706572747920494420616c72656164792065786044820152636973747360e01b60648201526084016104d6565b88610aa85760405162461bcd60e51b815260206004820152602560248201527f5469746c654e46543a2050726f70657274792049442063616e6e6f7420626520604482015264656d70747960d81b60648201526084016104d6565b60008611610b105760405162461bcd60e51b815260206004820152602f60248201527f5469746c654e46543a2041737365737365642076616c7565206d75737420626560448201526e02067726561746572207468616e203608c1b60648201526084016104d6565b60098054906000610b2083612024565b9190505591506001600b8b8b604051610b3a929190612014565b9081526040805160209281900383018120805460ff191694151594909417909355601f8c01829004909102820160e090810190915260c082018b815282918d908d9081908501838280828437600092019190915250505090825250604080516020601f8c018190048102820181019092528a815291810191908b908b9081908401838280828437600092019190915250505090825250602080820189905260408051601f89018390048302810183018252888152920191908890889081908401838280828437600092018290525093855250505060208083018790526040928301829052858252600a90522081518190610c349082612091565b5060208201516001820190610c499082612091565b506040820151600282015560608201516003820190610c689082612091565b506080820151600482015560a0909101516005909101805460ff1916911515919091179055610c978b836112fc565b8a6001600160a01b0316827f3d19dcad70ec98becfb4e1ac4f11ef995530e89a6375001679de6ce0b97cdcb58c8c604051610cd3929190612151565b60405180910390a3509998505050505050505050565b610cf48484846106b6565b61073b3385858585611316565b60606105e682611441565b600082815260076020526040902060010154610d2781610fb7565b61073b83836111f0565b6040805160c0810182526060808252602082018190526000928201839052808201526080810182905260a0810182905290610d6b83610fc4565b6001600160a01b031603610d915760405162461bcd60e51b81526004016104d690611fa3565b6000828152600a602052604090819020815160c08101909252805482908290610db990611fda565b80601f0160208091040260200160405190810160405280929190818152602001828054610de590611fda565b8015610e325780601f10610e0757610100808354040283529160200191610e32565b820191906000526020600020905b815481529060010190602001808311610e1557829003601f168201915b50505050508152602001600182018054610e4b90611fda565b80601f0160208091040260200160405190810160405280929190818152602001828054610e7790611fda565b8015610ec45780601f10610e9957610100808354040283529160200191610ec4565b820191906000526020600020905b815481529060010190602001808311610ea757829003601f168201915b5050505050815260200160028201548152602001600382018054610ee790611fda565b80601f0160208091040260200160405190810160405280929190818152602001828054610f1390611fda565b8015610f605780601f10610f3557610100808354040283529160200191610f60565b820191906000526020600020905b815481529060010190602001808311610f4357829003601f168201915b50505091835250506004820154602082015260059091015460ff16151560409091015292915050565b6001600160a01b03918216600090815260056020908152604080832093909416825291909152205460ff1690565b610fc18133611552565b50565b6000908152600260205260409020546001600160a01b031690565b60006001600160e01b03198216637965db0b60e01b14806105e657506105e68261158b565b60008061101083610fc4565b90506001600160a01b0381166105e657604051637e27328960e01b8152600481018490526024016104d6565b61079983838360016115b0565b600061105483610fc4565b600c54859085906001600160a01b03161561114657600c546040516312b449c960e11b81526001600160a01b0384811660048301526024820184905290911690632568939290604401602060405180830381865afa1580156110ba573d6000803e3d6000fd5b505050506040513d601f19601f820116820180604052508101906110de9190612180565b6111465760405162461bcd60e51b815260206004820152603360248201527f5469746c654e46543a205472616e73666572206e6f7420616c6c6f77656420626044820152721e481b585c9ad95d1c1b1858d94819dd585c99606a1b60648201526084016104d6565b6111518787876116b6565b979650505050505050565b60006111688383610857565b6111e85760008381526007602090815260408083206001600160a01b03861684529091529020805460ff191660011790556111a03390565b6001600160a01b0316826001600160a01b0316847f2f8788117e7eff1d82e926ec794901d17c78024a50270940304540a733656f0d60405160405180910390a45060016105e6565b5060006105e6565b60006111fc8383610857565b156111e85760008381526007602090815260408083206001600160a01b0386168085529252808320805460ff1916905551339286917ff6391f5c32d9c69d2a47ea670b442974b53935d1edc7fd64eb21e047a839171b9190a45060016105e6565b6001600160a01b03821661128f57604051630b61174360e31b81526001600160a01b03831660048201526024016104d6565b6001600160a01b03838116600081815260056020908152604080832094871680845294825291829020805460ff191686151590811790915591519182527f17307eab39ab6107e8899845ad3d59bd9653f200f220920489ca2b5937696c31910160405180910390a3505050565b6106b28282604051806020016040528060008152506117aa565b6001600160a01b0383163b1561143a57604051630a85bd0160e11b81526001600160a01b0384169063150b7a029061135890889088908790879060040161219d565b6020604051808303816000875af1925050508015611393575060408051601f3d908101601f19168201909252611390918101906121da565b60015b6113fc573d8080156113c1576040519150601f19603f3d011682016040523d82523d6000602084013e6113c6565b606091505b5080516000036113f457604051633250574960e11b81526001600160a01b03851660048201526024016104d6565b805160208201fd5b6001600160e01b03198116630a85bd0160e11b1461143857604051633250574960e11b81526001600160a01b03851660048201526024016104d6565b505b5050505050565b606061144c82611004565b506000828152600660205260408120805461146690611fda565b80601f016020809104026020016040519081016040528092919081815260200182805461149290611fda565b80156114df5780601f106114b4576101008083540402835291602001916114df565b820191906000526020600020905b8154815290600101906020018083116114c257829003601f168201915b5050505050905060006114fd60408051602081019091526000815290565b9050805160000361150f575092915050565b8151156115415780826040516020016115299291906121f7565b60405160208183030381529060405292505050919050565b61154a846117c2565b949350505050565b61155c8282610857565b6106b25760405163e2517d3f60e01b81526001600160a01b0382166004820152602481018390526044016104d6565b60006001600160e01b03198216632483248360e11b14806105e657506105e682611837565b80806115c457506001600160a01b03821615155b156116865760006115d484611004565b90506001600160a01b038316158015906116005750826001600160a01b0316816001600160a01b031614155b801561161357506116118184610f89565b155b1561163c5760405163a9fbf51f60e01b81526001600160a01b03841660048201526024016104d6565b81156116845783856001600160a01b0316826001600160a01b03167f8c5be1e5ebec7d5bd14f71427d1e84f3dd0314c0f7b2291e5b200ac8c7c3b92560405160405180910390a45b505b5050600090815260046020526040902080546001600160a01b0319166001600160a01b0392909216919091179055565b6000806116c284610fc4565b90506001600160a01b038316156116de576116de818486611887565b6001600160a01b0381161561171c576116fb6000856000806115b0565b6001600160a01b038116600090815260036020526040902080546000190190555b6001600160a01b0385161561174b576001600160a01b0385166000908152600360205260409020805460010190555b60008481526002602052604080822080546001600160a01b0319166001600160a01b0389811691821790925591518793918516917fddf252ad1be2c89b69c2b068fc378daa952ba7f163c4a11628f55a4df523b3ef91a4949350505050565b6117b483836118eb565b610799336000858585611316565b60606117cd82611004565b5060006117e560408051602081019091526000815290565b905060008151116118055760405180602001604052806000815250611830565b8061180f84611950565b6040516020016118209291906121f7565b6040516020818303038152906040525b9392505050565b60006001600160e01b031982166380ac58cd60e01b148061186857506001600160e01b03198216635b5e139f60e01b145b806105e657506301ffc9a760e01b6001600160e01b03198316146105e6565b6118928383836119e3565b610799576001600160a01b0383166118c057604051637e27328960e01b8152600481018290526024016104d6565b60405163177e802f60e01b81526001600160a01b0383166004820152602481018290526044016104d6565b6001600160a01b03821661191557604051633250574960e11b8152600060048201526024016104d6565b600061192383836000611049565b90506001600160a01b03811615610799576040516339e3563760e11b8152600060048201526024016104d6565b6060600061195d83611a46565b600101905060008167ffffffffffffffff81111561197d5761197d611e02565b6040519080825280601f01601f1916602001820160405280156119a7576020820181803683370190505b5090508181016020015b600019016f181899199a1a9b1b9c1cb0b131b232b360811b600a86061a8153600a85049450846119b157509392505050565b60006001600160a01b0383161580159061154a5750826001600160a01b0316846001600160a01b03161480611a1d5750611a1d8484610f89565b8061154a5750506000908152600460205260409020546001600160a01b03908116911614919050565b60008072184f03e93ff9f4daa797ed6e38ed64bf6a1f0160401b8310611a855772184f03e93ff9f4daa797ed6e38ed64bf6a1f0160401b830492506040015b6d04ee2d6d415b85acef81000000008310611ab1576d04ee2d6d415b85acef8100000000830492506020015b662386f26fc100008310611acf57662386f26fc10000830492506010015b6305f5e1008310611ae7576305f5e100830492506008015b6127108310611afb57612710830492506004015b60648310611b0d576064830492506002015b600a83106105e65760010192915050565b60008060408385031215611b3157600080fd5b50508035926020909101359150565b6001600160e01b031981168114610fc157600080fd5b600060208284031215611b6857600080fd5b813561183081611b40565b60005b83811015611b8e578181015183820152602001611b76565b50506000910152565b60008151808452611baf816020860160208601611b73565b601f01601f19169290920160200192915050565b6020815260006118306020830184611b97565b600060208284031215611be857600080fd5b5035919050565b80356001600160a01b0381168114611c0657600080fd5b919050565b60008060408385031215611c1e57600080fd5b611c2783611bef565b946020939093013593505050565b600080600060608486031215611c4a57600080fd5b611c5384611bef565b9250611c6160208501611bef565b9150604084013590509250925092565b60008060408385031215611c8457600080fd5b82359150611c9460208401611bef565b90509250929050565b600060208284031215611caf57600080fd5b61183082611bef565b8015158114610fc157600080fd5b60008060408385031215611cd957600080fd5b611ce283611bef565b91506020830135611cf281611cb8565b809150509250929050565b60008083601f840112611d0f57600080fd5b50813567ffffffffffffffff811115611d2757600080fd5b602083019150836020828501011115611d3f57600080fd5b9250929050565b600080600080600080600080600060c08a8c031215611d6457600080fd5b611d6d8a611bef565b985060208a013567ffffffffffffffff80821115611d8a57600080fd5b611d968d838e01611cfd565b909a50985060408c0135915080821115611daf57600080fd5b611dbb8d838e01611cfd565b909850965060608c0135955060808c0135915080821115611ddb57600080fd5b50611de88c828d01611cfd565b9a9d999c50979a9699959894979660a00135949350505050565b634e487b7160e01b600052604160045260246000fd5b60008060008060808587031215611e2e57600080fd5b611e3785611bef565b9350611e4560208601611bef565b925060408501359150606085013567ffffffffffffffff80821115611e6957600080fd5b818701915087601f830112611e7d57600080fd5b813581811115611e8f57611e8f611e02565b604051601f8201601f19908116603f01168101908382118183101715611eb757611eb7611e02565b816040528281528a6020848701011115611ed057600080fd5b82602086016020830137600060208483010152809550505050505092959194509250565b602081526000825160c06020840152611f1060e0840182611b97565b90506020840151601f1980858403016040860152611f2e8383611b97565b925060408601516060860152606086015191508085840301608086015250611f568282611b97565b915050608084015160a084015260a0840151151560c08401528091505092915050565b60008060408385031215611f8c57600080fd5b611f9583611bef565b9150611c9460208401611bef565b6020808252601e908201527f5469746c654e46543a20546f6b656e20646f6573206e6f742065786973740000604082015260600190565b600181811c90821680611fee57607f821691505b60208210810361200e57634e487b7160e01b600052602260045260246000fd5b50919050565b8183823760009101908152919050565b60006001820161204457634e487b7160e01b600052601160045260246000fd5b5060010190565b601f82111561079957600081815260208120601f850160051c810160208610156120725750805b601f850160051c820191505b818110156114385782815560010161207e565b815167ffffffffffffffff8111156120ab576120ab611e02565b6120bf816120b98454611fda565b8461204b565b602080601f8311600181146120f457600084156120dc5750858301515b600019600386901b1c1916600185901b178555611438565b600085815260208120601f198616915b8281101561212357888601518255948401946001909101908401612104565b50858210156121415787850151600019600388901b60f8161c191681555b5050505050600190811b01905550565b60208152816020820152818360408301376000818301604090810191909152601f909201601f19160101919050565b60006020828403121561219257600080fd5b815161183081611cb8565b6001600160a01b03858116825284166020820152604081018390526080606082018190526000906121d090830184611b97565b9695505050505050565b6000602082840312156121ec57600080fd5b815161183081611b40565b60008351612209818460208801611b73565b83519083019061221d818360208801611b73565b0194935050505056fea2646970667358221220d0c7922b294978d9fbc45339661f2cac0d18015a398232c6bbe54e85185e7b2a64736f6c63430008140033",
  "linkReferences": {},
  "deployedLinkReferences": {}
}