{
  "_format": "hh-sol-artifact-1",
  "contractName": "AuctionHouse",
  "sourceName": "contracts/AuctionHouse.sol",
  "abi": [
    {
      "inputs": [
        {
          "internalType": "address",
          "name": "admin",
          "type": "address"
        },
        {
          "internalType": "address",
          "name": "_marketplaceGuard",
          "type": "address"
        },
        {
          "internalType": "address",
          "name": "_feeRecipient",
          "type": "address"
        }
      ],
      "stateMutability": "nonpayable",
      "type": "constructor"
    },
    {
      "inputs": [],
      "name": "AccessControlBadConfirmation",
      "type": "error"
    },
    {
      "inputs": [
        {
          "internalType": "address",
          "name": "account",
          "type": "address"
        },
        {
          "internalType": "bytes32",
          "name": "neededRole",
          "type": "bytes32"
        }
      ],
      "name": "AccessControlUnauthorizedAccount",
      "type": "error"
    },
    {
      "inputs": [],
      "name": "ReentrancyGuardReentrantCall",
      "type": "error"
    },
    {
      "anonymous": false,
      "inputs": [
        {
          "indexed": true,
          "internalType": "uint256",
          "name": "auctionId",
          "type": "uint256"
        },
        {
          "indexed": true,
          "internalType": "address",
          "name": "seller",
          "type": "address"
        },
        {
          "indexed": true,
          "internalType": "address",
          "name": "collection",
          "type": "address"
        },
        {
          "indexed": false,
          "internalType": "uint256",
          "name": "tokenId",
          "type": "uint256"
        },
        {
          "indexed": false,
          "internalType": "uint256",
          "name": "reservePrice",
          "type": "uint256"
        }
      ],
      "name": "AuctionCreated",
      "type": "event"
    },
    {
      "anonymous": false,
      "inputs": [
        {
          "indexed": true,
          "internalType": "uint256",
          "name": "auctionId",
          "type": "uint256"
        },
        {
          "indexed": true,
          "internalType": "address",
          "name": "winner",
          "type": "address"
        },
        {
          "indexed": false,
          "internalType": "uint256",
          "name": "amount",
          "type": "uint256"
        }
      ],
      "name": "AuctionSettled",
      "type": "event"
    },
    {
      "anonymous": false,
      "inputs": [
        {
          "indexed": true,
          "internalType": "uint256",
          "name": "auctionId",
          "type": "uint256"
        },
        {
          "indexed": true,
          "internalType": "address",
          "name": "bidder",
          "type": "address"
        },
        {
          "indexed": false,
          "internalType": "uint256",
          "name": "amount",
          "type": "uint256"
        },
        {
          "indexed": false,
          "internalType": "uint256",
          "name": "endTime",
          "type": "uint256"
        }
      ],
      "name": "BidPlaced",
      "type": "event"
    },
    {
      "anonymous": false,
      "inputs": [
        {
          "indexed": true,
          "internalType": "bytes32",
          "name": "role",
          "type": "bytes32"
        },
        {
          "indexed": true,
          "internalType": "bytes32",
          "name": "previousAdminRole",
          "type": "bytes32"
        },
        {
          "indexed": true,
          "internalType": "bytes32",
          "name": "newAdminRole",
          "type": "bytes32"
        }
      ],
      "name": "RoleAdminChanged",
      "type": "event"
    },
    {
      "anonymous": false,
      "inputs": [
        {
          "indexed": true,
          "internalType": "bytes32",
          "name": "role",
          "type": "bytes32"
        },
        {
          "indexed": true,
          "internalType": "address",
          "name": "account",
          "type": "address"
        },
        {
          "indexed": true,
          "internalType": "address",
          "name": "sender",
          "type": "address"
        }
      ],
      "name": "RoleGranted",
      "type": "event"
    },
    {
      "anonymous": false,
      "inputs": [
        {
          "indexed": true,
          "internalType": "bytes32",
          "name": "role",
          "type": "bytes32"
        },
        {
          "indexed": true,
          "internalType": "address",
          "name": "account",
          "type": "address"
        },
        {
          "indexed": true,
          "internalType": "address",
          "name": "sender",
          "type": "address"
        }
      ],
      "name": "RoleRevoked",
      "type": "event"
    },
    {
      "inputs": [],
      "name": "ADMIN_ROLE",
      "outputs": [
        {
          "internalType": "bytes32",
          "name": "",
          "type": "bytes32"
        }
      ],
      "stateMutability": "view",
      "type": "function"
    },
    {
      "inputs": [],
      "name": "BASIS_POINTS",
      "outputs": [
        {
          "internalType": "uint256",
          "name": "",
          "type": "uint256"
        }
      ],
      "stateMutability": "view",
      "type": "function"
    },
    {
      "inputs": [],
      "name": "DEFAULT_ADMIN_ROLE",
      "outputs": [
        {
          "internalType": "bytes32",
          "name": "",
          "type": "bytes32"
        }
      ],
      "stateMutability": "view",
      "type": "function"
    },
    {
      "inputs": [],
      "name": "MARKETPLACE_FEE",
      "outputs": [
        {
          "internalType": "uint256",
          "name": "",
          "type": "uint256"
        }
      ],
      "stateMutability": "view",
      "type": "function"
    },
    {
      "inputs": [],
      "name": "MAX_AUCTION_DURATION",
      "outputs": [
        {
          "internalType": "uint256",
          "name": "",
          "type": "uint256"
        }
      ],
      "stateMutability": "view",
      "type": "function"
    },
    {
      "inputs": [],
      "name": "MIN_AUCTION_DURATION",
      "outputs": [
        {
          "internalType": "uint256",
          "name": "",
          "type": "uint256"
        }
      ],
      "stateMutability": "view",
      "type": "function"
    },
    {
      "inputs": [],
      "name": "MIN_BID_INCREMENT",
      "outputs": [
        {
          "internalType": "uint256",
          "name": "",
          "type": "uint256"
        }
      ],
      "stateMutability": "view",
      "type": "function"
    },
    {
      "inputs": [],
      "name": "TIME_EXTENSION",
      "outputs": [
        {
          "internalType": "uint256",
          "name": "",
          "type": "uint256"
        }
      ],
      "stateMutability": "view",
      "type": "function"
    },
    {
      "inputs": [
        {
          "internalType": "uint256",
          "name": "",
          "type": "uint256"
        }
      ],
      "name": "auctions",
      "outputs": [
        {
          "internalType": "address",
          "name": "seller",
          "type": "address"
        },
        {
          "internalType": "address",
          "name": "collection",
          "type": "address"
        },
        {
          "internalType": "uint256",
          "name": "tokenId",
          "type": "uint256"
        },
        {
          "internalType": "uint256",
          "name": "reservePrice",
          "type": "uint256"
        },
        {
          "internalType": "uint256",
          "name": "currentBid",
          "type": "uint256"
        },
        {
          "internalType": "address",
          "name": "currentBidder",
          "type": "address"
        },
        {
          "internalType": "address",
          "name": "paymentToken",
          "type": "address"
        },
        {
          "internalType": "uint256",
          "name": "startTime",
          "type": "uint256"
        },
        {
          "internalType": "uint256",
          "name": "endTime",
          "type": "uint256"
        },
        {
          "internalType": "bool",
          "name": "settled",
          "type": "bool"
        },
        {
          "internalType": "bool",
          "name": "cancelled",
          "type": "bool"
        }
      ],
      "stateMutability": "view",
      "type": "function"
    },
    {
      "inputs": [
        {
          "internalType": "uint256",
          "name": "",
          "type": "uint256"
        },
        {
          "internalType": "address",
          "name": "",
          "type": "address"
        }
      ],
      "name": "bidRefunds",
      "outputs": [
        {
          "internalType": "uint256",
          "name": "",
          "type": "uint256"
        }
      ],
      "stateMutability": "view",
      "type": "function"
    },
    {
      "inputs": [
        {
          "internalType": "uint256",
          "name": "auctionId",
          "type": "uint256"
        }
      ],
      "name": "cancelAuction",
      "outputs": [],
      "stateMutability": "nonpayable",
      "type": "function"
    },
    {
      "inputs": [
        {
          "internalType": "address",
          "name": "collection",
          "type": "address"
        },
        {
          "internalType": "uint256",
          "name": "tokenId",
          "type": "uint256"
        },
        {
          "internalType": "uint256",
          "name": "reservePrice",
          "type": "uint256"
        },
        {
          "internalType": "address",
          "name": "paymentToken",
          "type": "address"
        },
        {
          "internalType": "uint256",
          "name": "duration",
          "type": "uint256"
        }
      ],
      "name": "createAuction",
      "outputs": [
        {
          "internalType": "uint256",
          "name": "auctionId",
          "type": "uint256"
        }
      ],
      "stateMutability": "nonpayable",
      "type": "function"
    },
    {
      "inputs": [],
      "name": "feeRecipient",
      "outputs": [
        {
          "internalType": "address",
          "name": "",
          "type": "address"
        }
      ],
      "stateMutability": "view",
      "type": "function"
    },
    {
      "inputs": [
        {
          "internalType": "uint256",
          "name": "auctionId",
          "type": "uint256"
        }
      ],
      "name": "getAuction",
      "outputs": [
        {
          "components": [
            {
              "internalType": "address",
              "name": "seller",
              "type": "address"
            },
            {
              "internalType": "address",
              "name": "collection",
              "type": "address"
            },
            {
              "internalType": "uint256",
              "name": "tokenId",
              "type": "uint256"
            },
            {
              "internalType": "uint256",
              "name": "reservePrice",
              "type": "uint256"
            },
            {
              "internalType": "uint256",
              "name": "currentBid",
              "type": "uint256"
            },
            {
              "internalType": "address",
              "name": "currentBidder",
              "type": "address"
            },
            {
              "internalType": "address",
              "name": "paymentToken",
              "type": "address"
            },
            {
              "internalType": "uint256",
              "name": "startTime",
              "type": "uint256"
            },
            {
              "internalType": "uint256",
              "name": "endTime",
              "type": "uint256"
            },
            {
              "internalType": "bool",
              "name": "settled",
              "type": "bool"
            },
            {
              "internalType": "bool",
              "name": "cancelled",
              "type": "bool"
            }
          ],
          "internalType": "struct IAuctionHouse.Auction",
          "name": "",
          "type": "tuple"
        }
      ],
      "stateMutability": "view",
      "type": "function"
    },
    {
      "inputs": [
        {
          "internalType": "bytes32",
          "name": "role",
          "type": "bytes32"
        }
      ],
      "name": "getRoleAdmin",
      "outputs": [
        {
          "internalType": "bytes32",
          "name": "",
          "type": "bytes32"
        }
      ],
      "stateMutability": "view",
      "type": "function"
    },
    {
      "inputs": [
        {
          "internalType": "bytes32",
          "name": "role",
          "type": "bytes32"
        },
        {
          "internalType": "address",
          "name": "account",
          "type": "address"
        }
      ],
      "name": "grantRole",
      "outputs": [],
      "stateMutability": "nonpayable",
      "type": "function"
    },
    {
      "inputs": [
        {
          "internalType": "bytes32",
          "name": "role",
          "type": "bytes32"
        },
        {
          "internalType": "address",
          "name": "account",
          "type": "address"
        }
      ],
      "name": "hasRole",
      "outputs": [
        {
          "internalType": "bool",
          "name": "",
          "type": "bool"
        }
      ],
      "stateMutability": "view",
      "type": "function"
    },
    {
      "inputs": [],
      "name": "marketplaceGuard",
      "outputs": [
        {
          "internalType": "contract IMarketplaceGuard",
          "name": "",
          "type": "address"
        }
      ],
      "stateMutability": "view",
      "type": "function"
    },
    {
      "inputs": [
        {
          "internalType": "address",
          "name": "",
          "type": "address"
        },
        {
          "internalType": "address",
          "name": "",
          "type": "address"
        },
        {
          "internalType": "uint256",
          "name": "",
          "type": "uint256"
        },
        {
          "internalType": "bytes",
          "name": "",
          "type": "bytes"
        }
      ],
      "name": "onERC721Received",
      "outputs": [
        {
          "internalType": "bytes4",
          "name": "",
          "type": "bytes4"
        }
      ],
      "stateMutability": "pure",
      "type": "function"
    },
    {
      "inputs": [
        {
          "internalType": "uint256",
          "name": "auctionId",
          "type": "uint256"
        }
      ],
      "name": "placeBid",
      "outputs": [],
      "stateMutability": "payable",
      "type": "function"
    },
    {
      "inputs": [
        {
          "internalType": "bytes32",
          "name": "role",
          "type": "bytes32"
        },
        {
          "internalType": "address",
          "name": "callerConfirmation",
          "type": "address"
        }
      ],
      "name": "renounceRole",
      "outputs": [],
      "stateMutability": "nonpayable",
      "type": "function"
    },
    {
      "inputs": [
        {
          "internalType": "bytes32",
          "name": "role",
          "type": "bytes32"
        },
        {
          "internalType": "address",
          "name": "account",
          "type": "address"
        }
      ],
      "name": "revokeRole",
      "outputs": [],
      "stateMutability": "nonpayable",
      "type": "function"
    },
    {
      "inputs": [
        {
          "internalType": "uint256",
          "name": "auctionId",
          "type": "uint256"
        }
      ],
      "name": "settleAuction",
      "outputs": [],
      "stateMutability": "nonpayable",
      "type": "function"
    },
    {
      "inputs": [
        {
          "internalType": "bytes4",
          "name": "interfaceId",
          "type": "bytes4"
        }
      ],
      "name": "supportsInterface",
      "outputs": [
        {
          "internalType": "bool",
          "name": "",
          "type": "bool"
        }
      ],
      "stateMutability": "view",
      "type": "function"
    },
    {
      "inputs": [
        {
          "internalType": "address",
          "name": "newFeeRecipient",
          "type": "address"
        }
      ],
      "name": "updateFeeRecipient",
      "outputs": [],
      "stateMutability": "nonpayable",
      "type": "function"
    },
    {
      "inputs": [
        {
          "internalType": "address",
          "name": "newGuard",
          "type": "address"
        }
      ],
      "name": "updateMarketplaceGuard",
      "outputs": [],
      "stateMutability": "nonpayable",
      "type": "function"
    },
    {
      "inputs": [
        {
          "internalType": "uint256",
          "name": "auctionId",
          "type": "uint256"
        }
      ],
      "name": "withdrawBidRefund",
      "outputs": [],
      "stateMutability": "nonpayable",
      "type": "function"
    }
  ],
  "bytecode": "0x608060405260016004553480156200001657600080fd5b506040516200201438038062002014833981016040819052620000399162000177565b600180556200004a600084620000ab565b50620000777fa49807205ce4d355092ef5a8a18f56e8913cf4a201fbe287825b095693c2177584620000ab565b50600280546001600160a01b039384166001600160a01b0319918216179091556003805492909316911617905550620001c1565b6000828152602081815260408083206001600160a01b038516845290915281205460ff1662000150576000838152602081815260408083206001600160a01b03861684529091529020805460ff19166001179055620001073390565b6001600160a01b0316826001600160a01b0316847f2f8788117e7eff1d82e926ec794901d17c78024a50270940304540a733656f0d60405160405180910390a450600162000154565b5060005b92915050565b80516001600160a01b03811681146200017257600080fd5b919050565b6000806000606084860312156200018d57600080fd5b62000198846200015a565b9250620001a8602085016200015a565b9150620001b8604085016200015a565b90509250925092565b611e4380620001d16000396000f3fe60806040526004361061019c5760003560e01c806378bd7935116100ec578063a217fddf1161008a578063d547741f11610064578063d547741f146106b4578063e1f1c4a7146106d4578063f160d369146106ea578063f9641df41461070a57600080fd5b8063a217fddf14610673578063c2f50a7a14610688578063d2a7d4991461069e57600080fd5b806396b5a755116100c657806396b5a7551461060b5780639979ef451461062b5780639c103c611461063e5780639d154f821461065357600080fd5b806378bd7935146104a057806380acf05a146105cb57806391d14854146105eb57600080fd5b806334fa4e04116101595780634690484011610133578063469048401461032a578063571a26a01461036257806371943bce1461045657806375b238fc1461046c57600080fd5b806334fa4e04146102d357806336568abe146102f35780633fb351781461031357600080fd5b806301ffc9a7146101a1578063150b7a02146101d6578063248a9ca31461021b5780632788aeb2146102595780632e993611146102915780632f2ff15d146102b3575b600080fd5b3480156101ad57600080fd5b506101c16101bc366004611a84565b61072a565b60405190151581526020015b60405180910390f35b3480156101e257600080fd5b506102026101f1366004611aca565b630a85bd0160e11b95945050505050565b6040516001600160e01b031990911681526020016101cd565b34801561022757600080fd5b5061024b610236366004611b69565b60009081526020819052604090206001015490565b6040519081526020016101cd565b34801561026557600080fd5b5061024b610274366004611b82565b600660209081526000928352604080842090915290825290205481565b34801561029d57600080fd5b506102b16102ac366004611b69565b610761565b005b3480156102bf57600080fd5b506102b16102ce366004611b82565b610bf9565b3480156102df57600080fd5b506102b16102ee366004611b69565b610c24565b3480156102ff57600080fd5b506102b161030e366004611b82565b610cee565b34801561031f57600080fd5b5061024b62093a8081565b34801561033657600080fd5b5060035461034a906001600160a01b031681565b6040516001600160a01b0390911681526020016101cd565b34801561036e57600080fd5b506103eb61037d366004611b69565b600560208190526000918252604090912080546001820154600283015460038401546004850154958501546006860154600787015460088801546009909801546001600160a01b03978816999688169895979496959385169490921692909160ff808216916101009004168b565b604080516001600160a01b039c8d1681529a8c1660208c01528a01989098526060890196909652608088019490945291871660a087015290951660c085015260e0840194909452610100830193909352911515610120820152901515610140820152610160016101cd565b34801561046257600080fd5b5061024b6101f481565b34801561047857600080fd5b5061024b7fa49807205ce4d355092ef5a8a18f56e8913cf4a201fbe287825b095693c2177581565b3480156104ac57600080fd5b506105be6104bb366004611b69565b6040805161016081018252600080825260208201819052918101829052606081018290526080810182905260a0810182905260c0810182905260e08101829052610100810182905261012081018290526101408101919091525060009081526005602081815260409283902083516101608101855281546001600160a01b0390811682526001830154811693820193909352600282015494810194909452600381015460608501526004810154608085015291820154811660a084015260068201541660c0830152600781015460e083015260088101546101008084019190915260099091015460ff808216151561012085015291900416151561014082015290565b6040516101cd9190611bb2565b3480156105d757600080fd5b5061024b6105e6366004611c69565b610d26565b3480156105f757600080fd5b506101c1610606366004611b82565b6111cf565b34801561061757600080fd5b506102b1610626366004611b69565b6111f8565b6102b1610639366004611b69565b61140d565b34801561064a57600080fd5b5061024b606481565b34801561065f57600080fd5b5060025461034a906001600160a01b031681565b34801561067f57600080fd5b5061024b600081565b34801561069457600080fd5b5061024b610e1081565b3480156106aa57600080fd5b5061024b61038481565b3480156106c057600080fd5b506102b16106cf366004611b82565b611857565b3480156106e057600080fd5b5061024b61271081565b3480156106f657600080fd5b506102b1610705366004611cbb565b61187c565b34801561071657600080fd5b506102b1610725366004611cbb565b6118c9565b60006001600160e01b03198216637965db0b60e01b148061075b57506301ffc9a760e01b6001600160e01b03198316145b92915050565b610769611916565b600081815260056020526040902080546001600160a01b03166107a75760405162461bcd60e51b815260040161079e90611cd8565b60405180910390fd5b600981015460ff161561080a5760405162461bcd60e51b815260206004820152602560248201527f41756374696f6e486f7573653a2041756374696f6e20616c72656164792073656044820152641d1d1b195960da1b606482015260840161079e565b6009810154610100900460ff16156108645760405162461bcd60e51b815260206004820152601f60248201527f41756374696f6e486f7573653a2041756374696f6e2063616e63656c6c656400604482015260640161079e565b80600801544210156108b85760405162461bcd60e51b815260206004820152601f60248201527f41756374696f6e486f7573653a2041756374696f6e206e6f7420656e64656400604482015260640161079e565b60098101805460ff1916600117905560058101546001600160a01b031615610b43576002805482546005840154928401546004808601546040516303cff63960e01b81526001600160a01b039485169281019290925294831660248201526044810191909152606481019390935216906303cff63990608401602060405180830381865afa15801561094e573d6000803e3d6000fd5b505050506040513d601f19601f820116820180604052508101906109729190611d1c565b6109cc5760405162461bcd60e51b815260206004820152602560248201527f41756374696f6e486f7573653a205472616e73616374696f6e206e6f7420616c6044820152641b1bddd95960da1b606482015260840161079e565b6000612710606483600401546109e29190611d54565b6109ec9190611d6b565b90506000818360040154610a009190611d8d565b90508115610a44576003546040516001600160a01b039091169083156108fc029084906000818181858888f19350505050158015610a42573d6000803e3d6000fd5b505b82546040516001600160a01b039091169082156108fc029083906000818181858888f19350505050158015610a7d573d6000803e3d6000fd5b50600183015460058401546002850154604051632142170760e11b81526001600160a01b03938416936342842e0e93610abf9330939290911691600401611da0565b600060405180830381600087803b158015610ad957600080fd5b505af1158015610aed573d6000803e3d6000fd5b50505050600583015460048401546040519081526001600160a01b039091169085907fc9f72b276a388619c6d185d146697036241880c36654b1a3ffdad07c24038d999060200160405180910390a35050610bec565b600181015481546002830154604051632142170760e11b81526001600160a01b03938416936342842e0e93610b819330939290911691600401611da0565b600060405180830381600087803b158015610b9b57600080fd5b505af1158015610baf573d6000803e3d6000fd5b5050604051600080825292508491507fc9f72b276a388619c6d185d146697036241880c36654b1a3ffdad07c24038d999060200160405180910390a35b50610bf660018055565b50565b600082815260208190526040902060010154610c1481611940565b610c1e838361194a565b50505050565b610c2c611916565b600081815260066020908152604080832033845290915290205480610c9d5760405162461bcd60e51b815260206004820152602160248201527f41756374696f6e486f7573653a204e6f20726566756e6420617661696c61626c6044820152606560f81b606482015260840161079e565b600082815260066020908152604080832033808552925280832083905551909183156108fc02918491818181858888f19350505050158015610ce3573d6000803e3d6000fd5b5050610bf660018055565b6001600160a01b0381163314610d175760405163334bd91960e11b815260040160405180910390fd5b610d2182826119dc565b505050565b6000610e10821015610d7a5760405162461bcd60e51b815260206004820181905260248201527f41756374696f6e486f7573653a204475726174696f6e20746f6f2073686f7274604482015260640161079e565b62093a80821115610dcd5760405162461bcd60e51b815260206004820152601f60248201527f41756374696f6e486f7573653a204475726174696f6e20746f6f206c6f6e6700604482015260640161079e565b60008411610e295760405162461bcd60e51b815260206004820152602360248201527f41756374696f6e486f7573653a20496e76616c6964207265736572766520707260448201526269636560e81b606482015260840161079e565b6040516331a9108f60e11b81526004810186905233906001600160a01b03881690636352211e90602401602060405180830381865afa158015610e70573d6000803e3d6000fd5b505050506040513d601f19601f82011682018060405250810190610e949190611dc4565b6001600160a01b031614610eea5760405162461bcd60e51b815260206004820152601d60248201527f41756374696f6e486f7573653a204e6f7420746f6b656e206f776e6572000000604482015260640161079e565b6002546040516312b449c960e11b8152336004820152602481018790526001600160a01b0390911690632568939290604401602060405180830381865afa158015610f39573d6000803e3d6000fd5b505050506040513d601f19601f82011682018060405250810190610f5d9190611d1c565b610fbb5760405162461bcd60e51b815260206004820152602960248201527f41756374696f6e486f7573653a2053656c6c6572206e6f7420616c6c6f77656460448201526820746f20747261646560b81b606482015260840161079e565b60048054906000610fcb83611de1565b919050559050604051806101600160405280336001600160a01b03168152602001876001600160a01b031681526020018681526020018581526020016000815260200160006001600160a01b03168152602001846001600160a01b03168152602001428152602001834261103f9190611dfa565b8152600060208083018290526040928301829052848252600580825291839020845181546001600160a01b03199081166001600160a01b0392831617835592860151600183018054851691831691909117905585850151600283015560608601516003830155608086015160048084019190915560a0870151948301805485169583169590951790945560c08601516006830180549094169082161790925560e08501516007820155610100808601516008830155610120860151600990920180546101409097015161ffff1990971692151561ff0019169290921795151502949094179093559051632142170760e11b8152918816916342842e0e9161114c91339130918b9101611da0565b600060405180830381600087803b15801561116657600080fd5b505af115801561117a573d6000803e3d6000fd5b505060408051888152602081018890526001600160a01b038a16935033925084917f1e9fc4128626f087a2c46b8f819387ca9e130c81ced063176def67bc205b3b00910160405180910390a495945050505050565b6000918252602082815260408084206001600160a01b0393909316845291905290205460ff1690565b600081815260056020526040902080546001600160a01b0316331461125f5760405162461bcd60e51b815260206004820152601f60248201527f41756374696f6e486f7573653a204e6f742061756374696f6e206f776e657200604482015260640161079e565b600981015460ff16156112b45760405162461bcd60e51b815260206004820152601d60248201527f41756374696f6e486f7573653a2041756374696f6e20736574746c6564000000604482015260640161079e565b6009810154610100900460ff161561131e5760405162461bcd60e51b815260206004820152602760248201527f41756374696f6e486f7573653a2041756374696f6e20616c72656164792063616044820152661b98d95b1b195960ca1b606482015260840161079e565b60058101546001600160a01b0316156113875760405162461bcd60e51b815260206004820152602560248201527f41756374696f6e486f7573653a2043616e6e6f742063616e63656c2077697468604482015264206269647360d81b606482015260840161079e565b60098101805461ff001916610100179055600181015481546002830154604051632142170760e11b81526001600160a01b03938416936342842e0e936113d7933093919092169190600401611da0565b600060405180830381600087803b1580156113f157600080fd5b505af1158015611405573d6000803e3d6000fd5b505050505050565b611415611916565b600081815260056020526040902080546001600160a01b031661144a5760405162461bcd60e51b815260040161079e90611cd8565b600981015460ff161561149f5760405162461bcd60e51b815260206004820152601d60248201527f41756374696f6e486f7573653a2041756374696f6e20736574746c6564000000604482015260640161079e565b6009810154610100900460ff16156114f95760405162461bcd60e51b815260206004820152601f60248201527f41756374696f6e486f7573653a2041756374696f6e2063616e63656c6c656400604482015260640161079e565b8060080154421061154c5760405162461bcd60e51b815260206004820152601b60248201527f41756374696f6e486f7573653a2041756374696f6e20656e6465640000000000604482015260640161079e565b600280549082015460405163306799f360e21b815233600482015260248101919091526001600160a01b039091169063c19e67cc90604401602060405180830381865afa1580156115a1573d6000803e3d6000fd5b505050506040513d601f19601f820116820180604052508101906115c59190611d1c565b6116115760405162461bcd60e51b815260206004820181905260248201527f41756374696f6e486f7573653a20426964646572206e6f7420616c6c6f776564604482015260640161079e565b60068101546000906001600160a01b031661162d575034611694565b60405162461bcd60e51b815260206004820152603660248201527f41756374696f6e486f7573653a2045524332302062696473206e6f74207375706044820152753837b93a32b21034b7103a3434b9903b32b939b4b7b760511b606482015260840161079e565b81600301548110156116e85760405162461bcd60e51b815260206004820152601f60248201527f41756374696f6e486f7573653a204269642062656c6f77207265736572766500604482015260640161079e565b6004820154156117c25760006127106101f484600401546117099190611d54565b6117139190611d6b565b83600401546117229190611dfa565b9050808210156117805760405162461bcd60e51b815260206004820152602360248201527f41756374696f6e486f7573653a2042696420696e6372656d656e7420746f6f206044820152626c6f7760e81b606482015260840161079e565b6004830154600085815260066020908152604080832060058801546001600160a01b03168452909152812080549091906117bb908490611dfa565b9091555050505b600482018190556005820180546001600160a01b031916331790556008820154610384906117f1904290611d8d565b10156118095761180361038442611dfa565b60088301555b6008820154604080518381526020810192909252339185917f51db8e23b3f4479b162fd48823b8402895442b8f6cfd94f66239391881ec7b6f910160405180910390a35050610bf660018055565b60008281526020819052604090206001015461187281611940565b610c1e83836119dc565b7fa49807205ce4d355092ef5a8a18f56e8913cf4a201fbe287825b095693c217756118a681611940565b50600380546001600160a01b0319166001600160a01b0392909216919091179055565b7fa49807205ce4d355092ef5a8a18f56e8913cf4a201fbe287825b095693c217756118f381611940565b50600280546001600160a01b0319166001600160a01b0392909216919091179055565b60026001540361193957604051633ee5aeb560e01b815260040160405180910390fd5b6002600155565b610bf68133611a47565b600061195683836111cf565b6119d4576000838152602081815260408083206001600160a01b03861684529091529020805460ff1916600117905561198c3390565b6001600160a01b0316826001600160a01b0316847f2f8788117e7eff1d82e926ec794901d17c78024a50270940304540a733656f0d60405160405180910390a450600161075b565b50600061075b565b60006119e883836111cf565b156119d4576000838152602081815260408083206001600160a01b0386168085529252808320805460ff1916905551339286917ff6391f5c32d9c69d2a47ea670b442974b53935d1edc7fd64eb21e047a839171b9190a450600161075b565b611a5182826111cf565b611a805760405163e2517d3f60e01b81526001600160a01b03821660048201526024810183905260440161079e565b5050565b600060208284031215611a9657600080fd5b81356001600160e01b031981168114611aae57600080fd5b9392505050565b6001600160a01b0381168114610bf657600080fd5b600080600080600060808688031215611ae257600080fd5b8535611aed81611ab5565b94506020860135611afd81611ab5565b935060408601359250606086013567ffffffffffffffff80821115611b2157600080fd5b818801915088601f830112611b3557600080fd5b813581811115611b4457600080fd5b896020828501011115611b5657600080fd5b9699959850939650602001949392505050565b600060208284031215611b7b57600080fd5b5035919050565b60008060408385031215611b9557600080fd5b823591506020830135611ba781611ab5565b809150509250929050565b81516001600160a01b0316815261016081016020830151611bde60208401826001600160a01b03169052565b5060408301516040830152606083015160608301526080830151608083015260a0830151611c1760a08401826001600160a01b03169052565b5060c0830151611c3260c08401826001600160a01b03169052565b5060e08381015190830152610100808401519083015261012080840151151590830152610140928301511515929091019190915290565b600080600080600060a08688031215611c8157600080fd5b8535611c8c81611ab5565b945060208601359350604086013592506060860135611caa81611ab5565b949793965091946080013592915050565b600060208284031215611ccd57600080fd5b8135611aae81611ab5565b60208082526024908201527f41756374696f6e486f7573653a2041756374696f6e20646f6573206e6f7420656040820152631e1a5cdd60e21b606082015260800190565b600060208284031215611d2e57600080fd5b81518015158114611aae57600080fd5b634e487b7160e01b600052601160045260246000fd5b808202811582820484141761075b5761075b611d3e565b600082611d8857634e487b7160e01b600052601260045260246000fd5b500490565b8181038181111561075b5761075b611d3e565b6001600160a01b039384168152919092166020820152604081019190915260600190565b600060208284031215611dd657600080fd5b8151611aae81611ab5565b600060018201611df357611df3611d3e565b5060010190565b8082018082111561075b5761075b611d3e56fea2646970667358221220e29b789c71023e7a85c0769b76f2b8eb1b418293802b86b10164960a69caa49064736f6c63430008140033",
  "linkReferences": {},
  "deployedLinkReferences": {}
}