{
  "_format": "hh-sol-artifact-1",
  "contractName": "TBAAccount",
  "sourceName": "contracts/TBAAccount.sol",
  "abi": [
    {
      "inputs": [],
      "stateMutability": "nonpayable",
      "type": "constructor"
    },
    {
      "inputs": [],
      "name": "ECDSAInvalidSignature",
      "type": "error"
    },
    {
      "inputs": [
        {
          "internalType": "uint256",
          "name": "length",
          "type": "uint256"
        }
      ],
      "name": "ECDSAInvalidSignatureLength",
      "type": "error"
    },
    {
      "inputs": [
        {
          "internalType": "bytes32",
          "name": "s",
          "type": "bytes32"
        }
      ],
      "name": "ECDSAInvalidSignatureS",
      "type": "error"
    },
    {
      "inputs": [],
      "name": "InvalidShortString",
      "type": "error"
    },
    {
      "inputs": [],
      "name": "ReentrancyGuardReentrantCall",
      "type": "error"
    },
    {
      "inputs": [
        {
          "internalType": "string",
          "name": "str",
          "type": "string"
        }
      ],
      "name": "StringTooLong",
      "type": "error"
    },
    {
      "anonymous": false,
      "inputs": [],
      "name": "EIP712DomainChanged",
      "type": "event"
    },
    {
      "anonymous": false,
      "inputs": [
        {
          "indexed": true,
          "internalType": "address",
          "name": "account",
          "type": "address"
        },
        {
          "components": [
            {
              "internalType": "bool",
              "name": "requiresVoucher",
              "type": "bool"
            },
            {
              "internalType": "uint256",
              "name": "cooldownPeriod",
              "type": "uint256"
            },
            {
              "internalType": "uint256",
              "name": "maxWithdrawalAmount",
              "type": "uint256"
            },
            {
              "internalType": "address[]",
              "name": "authorizedSigners",
              "type": "address[]"
            }
          ],
          "indexed": false,
          "internalType": "struct ITBAAccount.WithdrawalPolicy",
          "name": "policy",
          "type": "tuple"
        }
      ],
      "name": "PolicyUpdated",
      "type": "event"
    },
    {
      "anonymous": false,
      "inputs": [
        {
          "indexed": true,
          "internalType": "address",
          "name": "account",
          "type": "address"
        },
        {
          "indexed": true,
          "internalType": "address",
          "name": "recipient",
          "type": "address"
        },
        {
          "indexed": false,
          "internalType": "uint256",
          "name": "amount",
          "type": "uint256"
        }
      ],
      "name": "WithdrawalExecuted",
      "type": "event"
    },
    {
      "anonymous": false,
      "inputs": [
        {
          "indexed": true,
          "internalType": "address",
          "name": "account",
          "type": "address"
        },
        {
          "indexed": true,
          "internalType": "address",
          "name": "recipient",
          "type": "address"
        },
        {
          "indexed": false,
          "internalType": "uint256",
          "name": "amount",
          "type": "uint256"
        }
      ],
      "name": "WithdrawalRequested",
      "type": "event"
    },
    {
      "inputs": [],
      "name": "eip712Domain",
      "outputs": [
        {
          "internalType": "bytes1",
          "name": "fields",
          "type": "bytes1"
        },
        {
          "internalType": "string",
          "name": "name",
          "type": "string"
        },
        {
          "internalType": "string",
          "name": "version",
          "type": "string"
        },
        {
          "internalType": "uint256",
          "name": "chainId",
          "type": "uint256"
        },
        {
          "internalType": "address",
          "name": "verifyingContract",
          "type": "address"
        },
        {
          "internalType": "bytes32",
          "name": "salt",
          "type": "bytes32"
        },
        {
          "internalType": "uint256[]",
          "name": "extensions",
          "type": "uint256[]"
        }
      ],
      "stateMutability": "view",
      "type": "function"
    },
    {
      "inputs": [
        {
          "components": [
            {
              "internalType": "address",
              "name": "account",
              "type": "address"
            },
            {
              "internalType": "address",
              "name": "recipient",
              "type": "address"
            },
            {
              "internalType": "uint256",
              "name": "amount",
              "type": "uint256"
            },
            {
              "internalType": "address",
              "name": "token",
              "type": "address"
            },
            {
              "internalType": "uint256",
              "name": "nonce",
              "type": "uint256"
            },
            {
              "internalType": "uint256",
              "name": "deadline",
              "type": "uint256"
            },
            {
              "internalType": "bytes",
              "name": "signature",
              "type": "bytes"
            }
          ],
          "internalType": "struct ITBAAccount.Voucher",
          "name": "voucher",
          "type": "tuple"
        }
      ],
      "name": "executeWithVoucher",
      "outputs": [],
      "stateMutability": "nonpayable",
      "type": "function"
    },
    {
      "inputs": [
        {
          "internalType": "address",
          "name": "tokenAddress",
          "type": "address"
        },
        {
          "internalType": "uint256",
          "name": "amount",
          "type": "uint256"
        }
      ],
      "name": "executeWithdrawal",
      "outputs": [],
      "stateMutability": "nonpayable",
      "type": "function"
    },
    {
      "inputs": [],
      "name": "getWithdrawalPolicy",
      "outputs": [
        {
          "components": [
            {
              "internalType": "bool",
              "name": "requiresVoucher",
              "type": "bool"
            },
            {
              "internalType": "uint256",
              "name": "cooldownPeriod",
              "type": "uint256"
            },
            {
              "internalType": "uint256",
              "name": "maxWithdrawalAmount",
              "type": "uint256"
            },
            {
              "internalType": "address[]",
              "name": "authorizedSigners",
              "type": "address[]"
            }
          ],
          "internalType": "struct ITBAAccount.WithdrawalPolicy",
          "name": "",
          "type": "tuple"
        }
      ],
      "stateMutability": "view",
      "type": "function"
    },
    {
      "inputs": [],
      "name": "owner",
      "outputs": [
        {
          "internalType": "address",
          "name": "",
          "type": "address"
        }
      ],
      "stateMutability": "view",
      "type": "function"
    },
    {
      "inputs": [
        {
          "internalType": "address",
          "name": "tokenAddress",
          "type": "address"
        },
        {
          "internalType": "uint256",
          "name": "amount",
          "type": "uint256"
        }
      ],
      "name": "requestWithdrawal",
      "outputs": [],
      "stateMutability": "nonpayable",
      "type": "function"
    },
    {
      "inputs": [],
      "name": "state",
      "outputs": [
        {
          "internalType": "uint256",
          "name": "",
          "type": "uint256"
        }
      ],
      "stateMutability": "view",
      "type": "function"
    },
    {
      "inputs": [
        {
          "internalType": "bytes4",
          "name": "interfaceId",
          "type": "bytes4"
        }
      ],
      "name": "supportsInterface",
      "outputs": [
        {
          "internalType": "bool",
          "name": "",
          "type": "bool"
        }
      ],
      "stateMutability": "view",
      "type": "function"
    },
    {
      "inputs": [],
      "name": "token",
      "outputs": [
        {
          "internalType": "uint256",
          "name": "",
          "type": "uint256"
        },
        {
          "internalType": "address",
          "name": "",
          "type": "address"
        },
        {
          "internalType": "uint256",
          "name": "",
          "type": "uint256"
        }
      ],
      "stateMutability": "view",
      "type": "function"
    },
    {
      "inputs": [
        {
          "components": [
            {
              "internalType": "bool",
              "name": "requiresVoucher",
              "type": "bool"
            },
            {
              "internalType": "uint256",
              "name": "cooldownPeriod",
              "type": "uint256"
            },
            {
              "internalType": "uint256",
              "name": "maxWithdrawalAmount",
              "type": "uint256"
            },
            {
              "internalType": "address[]",
              "name": "authorizedSigners",
              "type": "address[]"
            }
          ],
          "internalType": "struct ITBAAccount.WithdrawalPolicy",
          "name": "policy",
          "type": "tuple"
        }
      ],
      "name": "updateWithdrawalPolicy",
      "outputs": [],
      "stateMutability": "nonpayable",
      "type": "function"
    },
    {
      "stateMutability": "payable",
      "type": "receive"
    }
  ],
  "bytecode": "0x6101606040523480156200001257600080fd5b50604080518082018252600a8152691510905058d8dbdd5b9d60b21b602080830191909152825180840190935260018352603160f81b90830152906200005a826000620001a0565b610120526200006b816001620001a0565b61014052815160208084019190912060e052815190820120610100524660a052620000f960e05161010051604080517f8b73c3c69bb8fe3d512ecc4cf759cc79239f7b179b0ffacaa9a75d522b39400f60208201529081019290925260608201524660808201523060a082015260009060c00160405160208183030381529060405280519060200120905090565b60809081523060c052600160028190556040805192830181529082526201518060208301526000199082015291505060608101600060405190808252806020026020018201604052801562000158578160200160208202803683370190505b50905280516004805460ff19169115159190911781556020808301516005556040830151600655606083015180516200019692600792019062000225565b509050506200048c565b6000602083511015620001c057620001b883620001d9565b9050620001d3565b81620001cd84826200034b565b5060ff90505b92915050565b600080829050601f8151111562000210578260405163305a27a960e01b815260040162000207919062000417565b60405180910390fd5b80516200021d8262000467565b179392505050565b8280548282559060005260206000209081019282156200027d579160200282015b828111156200027d57825182546001600160a01b0319166001600160a01b0390911617825560209092019160019091019062000246565b506200028b9291506200028f565b5090565b5b808211156200028b576000815560010162000290565b634e487b7160e01b600052604160045260246000fd5b600181811c90821680620002d157607f821691505b602082108103620002f257634e487b7160e01b600052602260045260246000fd5b50919050565b601f8211156200034657600081815260208120601f850160051c81016020861015620003215750805b601f850160051c820191505b8181101562000342578281556001016200032d565b5050505b505050565b81516001600160401b03811115620003675762000367620002a6565b6200037f81620003788454620002bc565b84620002f8565b602080601f831160018114620003b757600084156200039e5750858301515b600019600386901b1c1916600185901b17855562000342565b600085815260208120601f198616915b82811015620003e857888601518255948401946001909101908401620003c7565b5085821015620004075787850151600019600388901b60f8161c191681555b5050505050600190811b01905550565b600060208083528351808285015260005b81811015620004465785810183015185820160400152820162000428565b506000604082860101526040601f19601f8301168501019250505092915050565b80516020808301519190811015620002f25760001960209190910360031b1b16919050565b60805160a05160c05160e051610100516101205161014051611944620004e76000396000610e1401526000610de20152600061101601526000610fee01526000610f4901526000610f7301526000610f9d01526119446000f3fe6080604052600436106100955760003560e01c8063c19d93fb11610059578063c19d93fb1461016f578063da95ebf714610193578063ddcbc908146101b3578063dde991da146101d3578063fc0c546a146101f357600080fd5b806301ffc9a7146100a157806321c81a36146100d65780637ac92456146100f857806384b0196e1461011a5780638da5cb5b1461014257600080fd5b3661009c57005b600080fd5b3480156100ad57600080fd5b506100c16100bc3660046112a3565b61022b565b60405190151581526020015b60405180910390f35b3480156100e257600080fd5b506100eb610262565b6040516100cd91906112d4565b34801561010457600080fd5b50610118610113366004611364565b61031b565b005b34801561012657600080fd5b5061012f610631565b6040516100cd97969594939291906113d6565b34801561014e57600080fd5b50610157610677565b6040516001600160a01b0390911681526020016100cd565b34801561017b57600080fd5b5061018560035481565b6040519081526020016100cd565b34801561019f57600080fd5b506101186101ae366004611364565b61070d565b3480156101bf57600080fd5b506101186101ce36600461146c565b6107bb565b3480156101df57600080fd5b506101186101ee3660046114a7565b610ce5565b3480156101ff57600080fd5b50610208610d60565b604080519384526001600160a01b039092166020840152908201526060016100cd565b60006001600160e01b031982166381b68d4560e01b148061025c57506001600160e01b031982166301ffc9a760e01b145b92915050565b61028f60405180608001604052806000151581526020016000815260200160008152602001606081525090565b604080516080810182526004805460ff161515825260055460208084019190915260065483850152600780548551818402810184019096528086529394929360608601939283018282801561030d57602002820191906000526020600020905b81546001600160a01b031681526001909101906020018083116102ef575b505050505081525050905090565b33610324610677565b6001600160a01b0316146103535760405162461bcd60e51b815260040161034a906114e2565b60405180910390fd5b61035b610db3565b60045460ff16156103c25760405162461bcd60e51b815260206004820152602b60248201527f5442414163636f756e743a20566f756368657220726571756972656420666f7260448201526a081dda5d1a191c985dd85b60aa1b606482015260840161034a565b6001600160a01b03821660009081526009602052604081205490036104335760405162461bcd60e51b815260206004820152602160248201527f5442414163636f756e743a204e6f207769746864726177616c207265717565736044820152601d60fa1b606482015260840161034a565b6005546001600160a01b038316600090815260096020526040902054610459919061152f565b4210156104b45760405162461bcd60e51b815260206004820152602360248201527f5442414163636f756e743a20436f6f6c646f776e20706572696f64206e6f74206044820152621b595d60ea1b606482015260840161034a565b6006548111156104d65760405162461bcd60e51b815260040161034a90611542565b6001600160a01b03821660008181526009602052604081205561057657804710156105435760405162461bcd60e51b815260206004820181905260248201527f5442414163636f756e743a20496e73756666696369656e742062616c616e6365604482015260640161034a565b604051339082156108fc029083906000818181858888f19350505050158015610570573d6000803e3d6000fd5b506105ec565b60405163a9059cbb60e01b81523360048201526024810182905282906001600160a01b0382169063a9059cbb906044016020604051808303816000875af11580156105c5573d6000803e3d6000fd5b505050506040513d601f19601f820116820180604052508101906105e99190611585565b50505b604051818152339030907f121eb3d5e027dba2c931e672efb7d244364546af71aef554f4c26e802c143c9b9060200160405180910390a361062d6001600255565b5050565b600060608060008060006060610645610ddb565b61064d610e0d565b60408051600080825260208201909252600f60f81b9b939a50919850469750309650945092509050565b600080600080610685610d60565b92509250925046831461069c576000935050505090565b6040516331a9108f60e11b8152600481018290526001600160a01b03831690636352211e90602401602060405180830381865afa1580156106e1573d6000803e3d6000fd5b505050506040513d601f19601f8201168201806040525081019061070591906115b8565b935050505090565b33610716610677565b6001600160a01b03161461073c5760405162461bcd60e51b815260040161034a906114e2565b60065481111561075e5760405162461bcd60e51b815260040161034a90611542565b6001600160a01b0382166000908152600960205260409081902042905551339030907f04c56a409d50971e45c5a2d96e5d557d2b0f1d66d40f14b141e4c958b0f39b32906107af9085815260200190565b60405180910390a35050565b6107c3610db3565b306107d160208301836115d5565b6001600160a01b0316146108275760405162461bcd60e51b815260206004820152601b60248201527f5442414163636f756e743a20496e76616c6964206163636f756e740000000000604482015260640161034a565b428160a00135101561087b5760405162461bcd60e51b815260206004820152601b60248201527f5442414163636f756e743a20566f756368657220657870697265640000000000604482015260640161034a565b608081013560009081526008602052604090205460ff16156108df5760405162461bcd60e51b815260206004820152601e60248201527f5442414163636f756e743a204e6f6e636520616c726561647920757365640000604482015260640161034a565b600654604082013511156109055760405162461bcd60e51b815260040161034a90611542565b60007f1fcf9298f6642fe0248cf09ca38a4f866ec3da4a624f600cc64815fbc0b843d761093560208401846115d5565b61094560408501602086016115d5565b604085013561095a60808701606088016115d5565b6040805160208101969096526001600160a01b03948516908601529183166060850152608084810191909152911660a0838101919091529084013560c083015283013560e08201526101000160405160208183030381529060405280519060200120905060006109c982610e3a565b90506000610a1a6109dd60c08601866115f2565b8080601f0160208091040260200160405190810160405280939291908181526020018383808284376000920191909152508693925050610e679050565b90506000805b600754811015610a7f57826001600160a01b031660046003018281548110610a4a57610a4a611640565b6000918252602090912001546001600160a01b031603610a6d5760019150610a7f565b80610a7781611656565b915050610a20565b508080610aa45750610a8f610677565b6001600160a01b0316826001600160a01b0316145b610af05760405162461bcd60e51b815260206004820152601d60248201527f5442414163636f756e743a20496e76616c6964207369676e6174757265000000604482015260640161034a565b6080850180356000908152600860205260408120805460ff1916600117905590610b1d90606088016115d5565b6001600160a01b031603610bd1578460400135471015610b7f5760405162461bcd60e51b815260206004820181905260248201527f5442414163636f756e743a20496e73756666696369656e742062616c616e6365604482015260640161034a565b610b8f60408601602087016115d5565b6001600160a01b03166108fc86604001359081150290604051600060405180830381858888f19350505050158015610bcb573d6000803e3d6000fd5b50610c74565b610be160808601606087016115d5565b6001600160a01b031663a9059cbb610bff60408801602089016115d5565b604080516001600160e01b031960e085901b1681526001600160a01b03909216600483015288013560248201526044016020604051808303816000875af1158015610c4e573d6000803e3d6000fd5b505050506040513d601f19601f82011682018060405250810190610c729190611585565b505b610c8460408601602087016115d5565b6001600160a01b0316306001600160a01b03167f121eb3d5e027dba2c931e672efb7d244364546af71aef554f4c26e802c143c9b8760400135604051610ccc91815260200190565b60405180910390a350505050610ce26001600255565b50565b33610cee610677565b6001600160a01b031614610d145760405162461bcd60e51b815260040161034a906114e2565b806004610d21828261171d565b505060405130907f5ac3a79bb0a38326fbeaa790bb1bc39107e995c6f44cb018571787c41f26372290610d559084906117f4565b60405180910390a250565b60408051606080825260808201909252600091829182918291906020820181803683370190505090506060604d60208301303c80806020019051810190610da79190611885565b93509350935050909192565b6002805403610dd557604051633ee5aeb560e01b815260040160405180910390fd5b60028055565b6060610e087f00000000000000000000000000000000000000000000000000000000000000006000610e91565b905090565b6060610e087f00000000000000000000000000000000000000000000000000000000000000006001610e91565b600061025c610e47610f3c565b8360405161190160f01b8152600281019290925260228201526042902090565b600080600080610e778686611067565b925092509250610e8782826110b4565b5090949350505050565b606060ff8314610eab57610ea48361116d565b905061025c565b818054610eb7906118be565b80601f0160208091040260200160405190810160405280929190818152602001828054610ee3906118be565b8015610f305780601f10610f0557610100808354040283529160200191610f30565b820191906000526020600020905b815481529060010190602001808311610f1357829003601f168201915b5050505050905061025c565b6000306001600160a01b037f000000000000000000000000000000000000000000000000000000000000000016148015610f9557507f000000000000000000000000000000000000000000000000000000000000000046145b15610fbf57507f000000000000000000000000000000000000000000000000000000000000000090565b610e08604080517f8b73c3c69bb8fe3d512ecc4cf759cc79239f7b179b0ffacaa9a75d522b39400f60208201527f0000000000000000000000000000000000000000000000000000000000000000918101919091527f000000000000000000000000000000000000000000000000000000000000000060608201524660808201523060a082015260009060c00160405160208183030381529060405280519060200120905090565b600080600083516041036110a15760208401516040850151606086015160001a611093888285856111ac565b9550955095505050506110ad565b50508151600091506002905b9250925092565b60008260038111156110c8576110c86118f8565b036110d1575050565b60018260038111156110e5576110e56118f8565b036111035760405163f645eedf60e01b815260040160405180910390fd5b6002826003811115611117576111176118f8565b036111385760405163fce698f760e01b81526004810182905260240161034a565b600382600381111561114c5761114c6118f8565b0361062d576040516335e2f38360e21b81526004810182905260240161034a565b6060600061117a8361127b565b604080516020808252818301909252919250600091906020820181803683375050509182525060208101929092525090565b600080807f7fffffffffffffffffffffffffffffff5d576e7357a4501ddfe92f46681b20a08411156111e75750600091506003905082611271565b604080516000808252602082018084528a905260ff891692820192909252606081018790526080810186905260019060a0016020604051602081039080840390855afa15801561123b573d6000803e3d6000fd5b5050604051601f1901519150506001600160a01b03811661126757506000925060019150829050611271565b9250600091508190505b9450945094915050565b600060ff8216601f81111561025c57604051632cd44ac360e21b815260040160405180910390fd5b6000602082840312156112b557600080fd5b81356001600160e01b0319811681146112cd57600080fd5b9392505050565b6000602080835260a08301845115158285015281850151604085015260408501516060850152606085015160808086015281815180845260c0870191508483019350600092505b808310156113445783516001600160a01b0316825292840192600192909201919084019061131b565b509695505050505050565b6001600160a01b0381168114610ce257600080fd5b6000806040838503121561137757600080fd5b82356113828161134f565b946020939093013593505050565b6000815180845260005b818110156113b65760208185018101518683018201520161139a565b506000602082860101526020601f19601f83011685010191505092915050565b60ff60f81b881681526000602060e0818401526113f660e084018a611390565b8381036040850152611408818a611390565b606085018990526001600160a01b038816608086015260a0850187905284810360c0860152855180825283870192509083019060005b8181101561145a5783518352928401929184019160010161143e565b50909c9b505050505050505050505050565b60006020828403121561147e57600080fd5b813567ffffffffffffffff81111561149557600080fd5b820160e081850312156112cd57600080fd5b6000602082840312156114b957600080fd5b813567ffffffffffffffff8111156114d057600080fd5b8201608081850312156112cd57600080fd5b60208082526019908201527f5442414163636f756e743a204e6f7420746865206f776e657200000000000000604082015260600190565b634e487b7160e01b600052601160045260246000fd5b8082018082111561025c5761025c611519565b6020808252818101527f5442414163636f756e743a20416d6f756e742065786365656473206c696d6974604082015260600190565b8015158114610ce257600080fd5b60006020828403121561159757600080fd5b81516112cd81611577565b634e487b7160e01b600052604160045260246000fd5b6000602082840312156115ca57600080fd5b81516112cd8161134f565b6000602082840312156115e757600080fd5b81356112cd8161134f565b6000808335601e1984360301811261160957600080fd5b83018035915067ffffffffffffffff82111561162457600080fd5b60200191503681900382131561163957600080fd5b9250929050565b634e487b7160e01b600052603260045260246000fd5b60006001820161166857611668611519565b5060010190565b6000813561025c8161134f565b67ffffffffffffffff831115611694576116946115a2565b680100000000000000008311156116ad576116ad6115a2565b8054838255808410156116e4576000828152602081208581019083015b808210156116e0578282556001820191506116ca565b5050505b5060008181526020812083915b85811015611715576117028361166f565b82820155602092909201916001016116f1565b505050505050565b813561172881611577565b815490151560ff1660ff19919091161781556020820135600182015560408201356002820155606082013536839003601e1901811261176657600080fd5b8201803567ffffffffffffffff81111561177f57600080fd5b6020820191508060051b360382131561179757600080fd5b6117a581836003860161167c565b50505050565b8183526000602080850194508260005b858110156117e95781356117ce8161134f565b6001600160a01b0316875295820195908201906001016117bb565b509495945050505050565b602081526000823561180581611577565b80151560208401525060208301356040830152604083013560608301526060830135601e1984360301811261183957600080fd5b830160208101903567ffffffffffffffff81111561185657600080fd5b8060051b360382131561186857600080fd5b60808085015261187c60a0850182846117ab565b95945050505050565b60008060006060848603121561189a57600080fd5b8351925060208401516118ac8161134f565b80925050604084015190509250925092565b600181811c908216806118d257607f821691505b6020821081036118f257634e487b7160e01b600052602260045260246000fd5b50919050565b634e487b7160e01b600052602160045260246000fdfea2646970667358221220f3f766e8dabd31d7ccb2159707aad4f4858f6f03c970d4943f39aa9c4ccc8ff864736f6c63430008140033",
  "linkReferences": {},
  "deployedLinkReferences": {}
}