{
  "_format": "hh-sol-artifact-1",
  "contractName": "Marketplace",
  "sourceName": "contracts/Marketplace.sol",
  "abi": [
    {
      "inputs": [
        {
          "internalType": "address",
          "name": "admin",
          "type": "address"
        },
        {
          "internalType": "address",
          "name": "_marketplaceGuard",
          "type": "address"
        },
        {
          "internalType": "address",
          "name": "_feeRecipient",
          "type": "address"
        }
      ],
      "stateMutability": "nonpayable",
      "type": "constructor"
    },
    {
      "inputs": [],
      "name": "AccessControlBadConfirmation",
      "type": "error"
    },
    {
      "inputs": [
        {
          "internalType": "address",
          "name": "account",
          "type": "address"
        },
        {
          "internalType": "bytes32",
          "name": "neededRole",
          "type": "bytes32"
        }
      ],
      "name": "AccessControlUnauthorizedAccount",
      "type": "error"
    },
    {
      "inputs": [],
      "name": "InvalidShortString",
      "type": "error"
    },
    {
      "inputs": [],
      "name": "ReentrancyGuardReentrantCall",
      "type": "error"
    },
    {
      "inputs": [
        {
          "internalType": "string",
          "name": "str",
          "type": "string"
        }
      ],
      "name": "StringTooLong",
      "type": "error"
    },
    {
      "anonymous": false,
      "inputs": [
        {
          "indexed": true,
          "internalType": "bytes32",
          "name": "bidHash",
          "type": "bytes32"
        },
        {
          "indexed": true,
          "internalType": "address",
          "name": "seller",
          "type": "address"
        },
        {
          "indexed": true,
          "internalType": "address",
          "name": "bidder",
          "type": "address"
        }
      ],
      "name": "BidAccepted",
      "type": "event"
    },
    {
      "anonymous": false,
      "inputs": [
        {
          "indexed": true,
          "internalType": "bytes32",
          "name": "bidHash",
          "type": "bytes32"
        },
        {
          "indexed": true,
          "internalType": "address",
          "name": "bidder",
          "type": "address"
        },
        {
          "indexed": false,
          "internalType": "uint256",
          "name": "amount",
          "type": "uint256"
        }
      ],
      "name": "BidPlaced",
      "type": "event"
    },
    {
      "anonymous": false,
      "inputs": [],
      "name": "EIP712DomainChanged",
      "type": "event"
    },
    {
      "anonymous": false,
      "inputs": [
        {
          "indexed": true,
          "internalType": "bytes32",
          "name": "orderHash",
          "type": "bytes32"
        },
        {
          "indexed": true,
          "internalType": "address",
          "name": "seller",
          "type": "address"
        }
      ],
      "name": "OrderCancelled",
      "type": "event"
    },
    {
      "anonymous": false,
      "inputs": [
        {
          "indexed": true,
          "internalType": "bytes32",
          "name": "orderHash",
          "type": "bytes32"
        },
        {
          "indexed": true,
          "internalType": "address",
          "name": "seller",
          "type": "address"
        },
        {
          "indexed": false,
          "internalType": "enum IMarketplace.OrderType",
          "name": "orderType",
          "type": "uint8"
        }
      ],
      "name": "OrderCreated",
      "type": "event"
    },
    {
      "anonymous": false,
      "inputs": [
        {
          "indexed": true,
          "internalType": "bytes32",
          "name": "orderHash",
          "type": "bytes32"
        },
        {
          "indexed": true,
          "internalType": "address",
          "name": "buyer",
          "type": "address"
        },
        {
          "indexed": true,
          "internalType": "address",
          "name": "seller",
          "type": "address"
        },
        {
          "indexed": false,
          "internalType": "uint256",
          "name": "price",
          "type": "uint256"
        }
      ],
      "name": "OrderFulfilled",
      "type": "event"
    },
    {
      "anonymous": false,
      "inputs": [
        {
          "indexed": true,
          "internalType": "bytes32",
          "name": "role",
          "type": "bytes32"
        },
        {
          "indexed": true,
          "internalType": "bytes32",
          "name": "previousAdminRole",
          "type": "bytes32"
        },
        {
          "indexed": true,
          "internalType": "bytes32",
          "name": "newAdminRole",
          "type": "bytes32"
        }
      ],
      "name": "RoleAdminChanged",
      "type": "event"
    },
    {
      "anonymous": false,
      "inputs": [
        {
          "indexed": true,
          "internalType": "bytes32",
          "name": "role",
          "type": "bytes32"
        },
        {
          "indexed": true,
          "internalType": "address",
          "name": "account",
          "type": "address"
        },
        {
          "indexed": true,
          "internalType": "address",
          "name": "sender",
          "type": "address"
        }
      ],
      "name": "RoleGranted",
      "type": "event"
    },
    {
      "anonymous": false,
      "inputs": [
        {
          "indexed": true,
          "internalType": "bytes32",
          "name": "role",
          "type": "bytes32"
        },
        {
          "indexed": true,
          "internalType": "address",
          "name": "account",
          "type": "address"
        },
        {
          "indexed": true,
          "internalType": "address",
          "name": "sender",
          "type": "address"
        }
      ],
      "name": "RoleRevoked",
      "type": "event"
    },
    {
      "inputs": [],
      "name": "ADMIN_ROLE",
      "outputs": [
        {
          "internalType": "bytes32",
          "name": "",
          "type": "bytes32"
        }
      ],
      "stateMutability": "view",
      "type": "function"
    },
    {
      "inputs": [],
      "name": "BASIS_POINTS",
      "outputs": [
        {
          "internalType": "uint256",
          "name": "",
          "type": "uint256"
        }
      ],
      "stateMutability": "view",
      "type": "function"
    },
    {
      "inputs": [],
      "name": "BID_TYPEHASH",
      "outputs": [
        {
          "internalType": "bytes32",
          "name": "",
          "type": "bytes32"
        }
      ],
      "stateMutability": "view",
      "type": "function"
    },
    {
      "inputs": [],
      "name": "DEFAULT_ADMIN_ROLE",
      "outputs": [
        {
          "internalType": "bytes32",
          "name": "",
          "type": "bytes32"
        }
      ],
      "stateMutability": "view",
      "type": "function"
    },
    {
      "inputs": [],
      "name": "MARKETPLACE_FEE",
      "outputs": [
        {
          "internalType": "uint256",
          "name": "",
          "type": "uint256"
        }
      ],
      "stateMutability": "view",
      "type": "function"
    },
    {
      "inputs": [],
      "name": "ORDER_TYPEHASH",
      "outputs": [
        {
          "internalType": "bytes32",
          "name": "",
          "type": "bytes32"
        }
      ],
      "stateMutability": "view",
      "type": "function"
    },
    {
      "inputs": [
        {
          "internalType": "bytes32",
          "name": "bidHash",
          "type": "bytes32"
        }
      ],
      "name": "acceptBid",
      "outputs": [],
      "stateMutability": "nonpayable",
      "type": "function"
    },
    {
      "inputs": [
        {
          "internalType": "bytes32[]",
          "name": "orderHashes",
          "type": "bytes32[]"
        },
        {
          "internalType": "address",
          "name": "buyer",
          "type": "address"
        }
      ],
      "name": "batchBuy",
      "outputs": [],
      "stateMutability": "payable",
      "type": "function"
    },
    {
      "inputs": [
        {
          "internalType": "bytes32",
          "name": "",
          "type": "bytes32"
        }
      ],
      "name": "bids",
      "outputs": [
        {
          "internalType": "address",
          "name": "bidder",
          "type": "address"
        },
        {
          "internalType": "address",
          "name": "collection",
          "type": "address"
        },
        {
          "internalType": "uint256",
          "name": "amount",
          "type": "uint256"
        },
        {
          "internalType": "address",
          "name": "paymentToken",
          "type": "address"
        },
        {
          "internalType": "uint256",
          "name": "deadline",
          "type": "uint256"
        },
        {
          "internalType": "bytes",
          "name": "signature",
          "type": "bytes"
        },
        {
          "internalType": "uint256",
          "name": "nonce",
          "type": "uint256"
        }
      ],
      "stateMutability": "view",
      "type": "function"
    },
    {
      "inputs": [
        {
          "internalType": "bytes32",
          "name": "orderHash",
          "type": "bytes32"
        }
      ],
      "name": "cancelOrder",
      "outputs": [],
      "stateMutability": "nonpayable",
      "type": "function"
    },
    {
      "inputs": [
        {
          "internalType": "bytes32",
          "name": "",
          "type": "bytes32"
        }
      ],
      "name": "cancelledOrders",
      "outputs": [
        {
          "internalType": "bool",
          "name": "",
          "type": "bool"
        }
      ],
      "stateMutability": "view",
      "type": "function"
    },
    {
      "inputs": [
        {
          "components": [
            {
              "internalType": "address",
              "name": "seller",
              "type": "address"
            },
            {
              "internalType": "address",
              "name": "collection",
              "type": "address"
            },
            {
              "internalType": "uint256[]",
              "name": "tokenIds",
              "type": "uint256[]"
            },
            {
              "internalType": "uint256",
              "name": "price",
              "type": "uint256"
            },
            {
              "internalType": "address",
              "name": "paymentToken",
              "type": "address"
            },
            {
              "internalType": "uint256",
              "name": "startTime",
              "type": "uint256"
            },
            {
              "internalType": "uint256",
              "name": "endTime",
              "type": "uint256"
            },
            {
              "internalType": "enum IMarketplace.OrderType",
              "name": "orderType",
              "type": "uint8"
            },
            {
              "internalType": "bytes",
              "name": "signature",
              "type": "bytes"
            },
            {
              "internalType": "uint256",
              "name": "nonce",
              "type": "uint256"
            },
            {
              "internalType": "bool",
              "name": "isActive",
              "type": "bool"
            }
          ],
          "internalType": "struct IMarketplace.Order",
          "name": "order",
          "type": "tuple"
        }
      ],
      "name": "createOrder",
      "outputs": [],
      "stateMutability": "nonpayable",
      "type": "function"
    },
    {
      "inputs": [],
      "name": "eip712Domain",
      "outputs": [
        {
          "internalType": "bytes1",
          "name": "fields",
          "type": "bytes1"
        },
        {
          "internalType": "string",
          "name": "name",
          "type": "string"
        },
        {
          "internalType": "string",
          "name": "version",
          "type": "string"
        },
        {
          "internalType": "uint256",
          "name": "chainId",
          "type": "uint256"
        },
        {
          "internalType": "address",
          "name": "verifyingContract",
          "type": "address"
        },
        {
          "internalType": "bytes32",
          "name": "salt",
          "type": "bytes32"
        },
        {
          "internalType": "uint256[]",
          "name": "extensions",
          "type": "uint256[]"
        }
      ],
      "stateMutability": "view",
      "type": "function"
    },
    {
      "inputs": [],
      "name": "feeRecipient",
      "outputs": [
        {
          "internalType": "address",
          "name": "",
          "type": "address"
        }
      ],
      "stateMutability": "view",
      "type": "function"
    },
    {
      "inputs": [
        {
          "internalType": "bytes32",
          "name": "orderHash",
          "type": "bytes32"
        },
        {
          "internalType": "address",
          "name": "buyer",
          "type": "address"
        }
      ],
      "name": "fulfillOrder",
      "outputs": [],
      "stateMutability": "payable",
      "type": "function"
    },
    {
      "inputs": [
        {
          "internalType": "bytes32",
          "name": "",
          "type": "bytes32"
        }
      ],
      "name": "fulfilledOrders",
      "outputs": [
        {
          "internalType": "bool",
          "name": "",
          "type": "bool"
        }
      ],
      "stateMutability": "view",
      "type": "function"
    },
    {
      "inputs": [
        {
          "internalType": "bytes32",
          "name": "role",
          "type": "bytes32"
        }
      ],
      "name": "getRoleAdmin",
      "outputs": [
        {
          "internalType": "bytes32",
          "name": "",
          "type": "bytes32"
        }
      ],
      "stateMutability": "view",
      "type": "function"
    },
    {
      "inputs": [
        {
          "internalType": "bytes32",
          "name": "role",
          "type": "bytes32"
        },
        {
          "internalType": "address",
          "name": "account",
          "type": "address"
        }
      ],
      "name": "grantRole",
      "outputs": [],
      "stateMutability": "nonpayable",
      "type": "function"
    },
    {
      "inputs": [
        {
          "internalType": "bytes32",
          "name": "role",
          "type": "bytes32"
        },
        {
          "internalType": "address",
          "name": "account",
          "type": "address"
        }
      ],
      "name": "hasRole",
      "outputs": [
        {
          "internalType": "bool",
          "name": "",
          "type": "bool"
        }
      ],
      "stateMutability": "view",
      "type": "function"
    },
    {
      "inputs": [],
      "name": "marketplaceGuard",
      "outputs": [
        {
          "internalType": "contract IMarketplaceGuard",
          "name": "",
          "type": "address"
        }
      ],
      "stateMutability": "view",
      "type": "function"
    },
    {
      "inputs": [
        {
          "internalType": "address",
          "name": "",
          "type": "address"
        }
      ],
      "name": "nonces",
      "outputs": [
        {
          "internalType": "uint256",
          "name": "",
          "type": "uint256"
        }
      ],
      "stateMutability": "view",
      "type": "function"
    },
    {
      "inputs": [
        {
          "internalType": "bytes32",
          "name": "",
          "type": "bytes32"
        }
      ],
      "name": "orders",
      "outputs": [
        {
          "internalType": "address",
          "name": "seller",
          "type": "address"
        },
        {
          "internalType": "address",
          "name": "collection",
          "type": "address"
        },
        {
          "internalType": "uint256",
          "name": "price",
          "type": "uint256"
        },
        {
          "internalType": "address",
          "name": "paymentToken",
          "type": "address"
        },
        {
          "internalType": "uint256",
          "name": "startTime",
          "type": "uint256"
        },
        {
          "internalType": "uint256",
          "name": "endTime",
          "type": "uint256"
        },
        {
          "internalType": "enum IMarketplace.OrderType",
          "name": "orderType",
          "type": "uint8"
        },
        {
          "internalType": "bytes",
          "name": "signature",
          "type": "bytes"
        },
        {
          "internalType": "uint256",
          "name": "nonce",
          "type": "uint256"
        },
        {
          "internalType": "bool",
          "name": "isActive",
          "type": "bool"
        }
      ],
      "stateMutability": "view",
      "type": "function"
    },
    {
      "inputs": [
        {
          "components": [
            {
              "internalType": "address",
              "name": "bidder",
              "type": "address"
            },
            {
              "internalType": "address",
              "name": "collection",
              "type": "address"
            },
            {
              "internalType": "uint256[]",
              "name": "tokenIds",
              "type": "uint256[]"
            },
            {
              "internalType": "uint256",
              "name": "amount",
              "type": "uint256"
            },
            {
              "internalType": "address",
              "name": "paymentToken",
              "type": "address"
            },
            {
              "internalType": "uint256",
              "name": "deadline",
              "type": "uint256"
            },
            {
              "internalType": "bytes",
              "name": "signature",
              "type": "bytes"
            },
            {
              "internalType": "uint256",
              "name": "nonce",
              "type": "uint256"
            }
          ],
          "internalType": "struct IMarketplace.Bid",
          "name": "bid",
          "type": "tuple"
        }
      ],
      "name": "placeBid",
      "outputs": [],
      "stateMutability": "payable",
      "type": "function"
    },
    {
      "inputs": [
        {
          "internalType": "bytes32",
          "name": "role",
          "type": "bytes32"
        },
        {
          "internalType": "address",
          "name": "callerConfirmation",
          "type": "address"
        }
      ],
      "name": "renounceRole",
      "outputs": [],
      "stateMutability": "nonpayable",
      "type": "function"
    },
    {
      "inputs": [
        {
          "internalType": "bytes32",
          "name": "role",
          "type": "bytes32"
        },
        {
          "internalType": "address",
          "name": "account",
          "type": "address"
        }
      ],
      "name": "revokeRole",
      "outputs": [],
      "stateMutability": "nonpayable",
      "type": "function"
    },
    {
      "inputs": [
        {
          "internalType": "bytes4",
          "name": "interfaceId",
          "type": "bytes4"
        }
      ],
      "name": "supportsInterface",
      "outputs": [
        {
          "internalType": "bool",
          "name": "",
          "type": "bool"
        }
      ],
      "stateMutability": "view",
      "type": "function"
    },
    {
      "inputs": [
        {
          "internalType": "address",
          "name": "newFeeRecipient",
          "type": "address"
        }
      ],
      "name": "updateFeeRecipient",
      "outputs": [],
      "stateMutability": "nonpayable",
      "type": "function"
    },
    {
      "inputs": [
        {
          "internalType": "address",
          "name": "newGuard",
          "type": "address"
        }
      ],
      "name": "updateMarketplaceGuard",
      "outputs": [],
      "stateMutability": "nonpayable",
      "type": "function"
    }
  ],
  "bytecode": "0x6101606040523480156200001257600080fd5b5060405162004455380380620044558339810160408190526200003591620002f1565b604080518082018252601081526f5469746c654d61726b6574706c61636560801b602080830191909152825180840190935260018352603160f81b9083015290620000828260006200019d565b61012052620000938160016200019d565b61014052815160208084019190912060e052815190820120610100524660a0526200012160e05161010051604080517f8b73c3c69bb8fe3d512ecc4cf759cc79239f7b179b0ffacaa9a75d522b39400f60208201529081019290925260608201524660808201523060a082015260009060c00160405160208183030381529060405280519060200120905090565b60805250503060c05260016003556200013c600084620001d6565b50620001697fa49807205ce4d355092ef5a8a18f56e8913cf4a201fbe287825b095693c2177584620001d6565b50600480546001600160a01b039384166001600160a01b031991821617909155600580549290931691161790555062000521565b6000602083511015620001bd57620001b58362000288565b9050620001d0565b81620001ca8482620003e0565b5060ff90505b92915050565b60008281526002602090815260408083206001600160a01b038516845290915281205460ff166200027f5760008381526002602090815260408083206001600160a01b03861684529091529020805460ff19166001179055620002363390565b6001600160a01b0316826001600160a01b0316847f2f8788117e7eff1d82e926ec794901d17c78024a50270940304540a733656f0d60405160405180910390a4506001620001d0565b506000620001d0565b600080829050601f81511115620002bf578260405163305a27a960e01b8152600401620002b69190620004ac565b60405180910390fd5b8051620002cc82620004fc565b179392505050565b80516001600160a01b0381168114620002ec57600080fd5b919050565b6000806000606084860312156200030757600080fd5b6200031284620002d4565b92506200032260208501620002d4565b91506200033260408501620002d4565b90509250925092565b634e487b7160e01b600052604160045260246000fd5b600181811c908216806200036657607f821691505b6020821081036200038757634e487b7160e01b600052602260045260246000fd5b50919050565b601f821115620003db57600081815260208120601f850160051c81016020861015620003b65750805b601f850160051c820191505b81811015620003d757828155600101620003c2565b5050505b505050565b81516001600160401b03811115620003fc57620003fc6200033b565b62000414816200040d845462000351565b846200038d565b602080601f8311600181146200044c5760008415620004335750858301515b600019600386901b1c1916600185901b178555620003d7565b600085815260208120601f198616915b828110156200047d578886015182559484019460019091019084016200045c565b50858210156200049c5787850151600019600388901b60f8161c191681555b5050505050600190811b01905550565b600060208083528351808285015260005b81811015620004db57858101830151858201604001528201620004bd565b506000604082860101526040601f19601f8301168501019250505092915050565b80516020808301519190811015620003875760001960209190910360031b1b16919050565b60805160a05160c05160e051610100516101205161014051613ee86200056d60003960006129460152600061291401526000505060005050600050506000505060005050613ee86000f3fe6080604052600436106101b75760003560e01c80638f98eeda116100ec578063c55dc8631161008a578063e2908d7c11610064578063e2908d7c14610555578063f160d36914610568578063f9641df414610588578063f973a209146105a857600080fd5b8063c55dc863146104ff578063d547741f1461051f578063e1f1c4a71461053f57600080fd5b80639c3f1e90116100c65780639c3f1e90146104745780639d154f82146104aa578063a217fddf146104ca578063a3510092146104df57600080fd5b80638f98eeda1461040c57806391d148541461043f5780639c103c611461045f57600080fd5b80635b4ae8c2116101595780637ecebe00116101335780637ecebe001461037457806384b0196e146103a1578063887aefda146103c95780638f13f48e146103dc57600080fd5b80635b4ae8c21461030d5780637489ec231461032057806375b238fc1461034057600080fd5b80632f2ff15d116101955780632f2ff15d1461025f57806336568abe1461028157806346904840146102a157806351bb9b1e146102d957600080fd5b806301ffc9a7146101bc5780631178cbb4146101f1578063248a9ca314610221575b600080fd5b3480156101c857600080fd5b506101dc6101d7366004613002565b6105dc565b60405190151581526020015b60405180910390f35b3480156101fd57600080fd5b506101dc61020c366004613033565b600a6020526000908152604090205460ff1681565b34801561022d57600080fd5b5061025161023c366004613033565b60009081526002602052604090206001015490565b6040519081526020016101e8565b34801561026b57600080fd5b5061027f61027a366004613071565b610613565b005b34801561028d57600080fd5b5061027f61029c366004613071565b61063e565b3480156102ad57600080fd5b506005546102c1906001600160a01b031681565b6040516001600160a01b0390911681526020016101e8565b3480156102e557600080fd5b506102517f9ed3cfdf55238be06b7cc7d8fa4229b49fedf30eeda9ec7b59ff37a70ed0282481565b61027f61031b366004613071565b610676565b34801561032c57600080fd5b5061027f61033b366004613033565b610ee7565b34801561034c57600080fd5b506102517fa49807205ce4d355092ef5a8a18f56e8913cf4a201fbe287825b095693c2177581565b34801561038057600080fd5b5061025161038f3660046130a1565b60086020526000908152604090205481565b3480156103ad57600080fd5b506103b661115c565b6040516101e89796959493929190613104565b61027f6103d736600461319a565b6111a2565b3480156103e857600080fd5b506101dc6103f7366004613033565b60096020526000908152604090205460ff1681565b34801561041857600080fd5b5061042c610427366004613033565b6115bf565b6040516101e897969594939291906131d5565b34801561044b57600080fd5b506101dc61045a366004613071565b611694565b34801561046b57600080fd5b50610251606481565b34801561048057600080fd5b5061049461048f366004613033565b6116bf565b6040516101e89a99989796959493929190613263565b3480156104b657600080fd5b506004546102c1906001600160a01b031681565b3480156104d657600080fd5b50610251600081565b3480156104eb57600080fd5b5061027f6104fa3660046132d9565b6117b1565b34801561050b57600080fd5b5061027f61051a366004613033565b611c9c565b34801561052b57600080fd5b5061027f61053a366004613071565b61237d565b34801561054b57600080fd5b5061025161271081565b61027f610563366004613314565b6123a2565b34801561057457600080fd5b5061027f6105833660046130a1565b61273e565b34801561059457600080fd5b5061027f6105a33660046130a1565b61278b565b3480156105b457600080fd5b506102517f2407cf709cce04a1aee7d49b3c1c154662ff7901ababa51b33426140ad2f55ca81565b60006001600160e01b03198216637965db0b60e01b148061060d57506301ffc9a760e01b6001600160e01b03198316145b92915050565b60008281526002602052604090206001015461062e816127d8565b61063883836127e2565b50505050565b6001600160a01b03811633146106675760405163334bd91960e11b815260040160405180910390fd5b6106718282612876565b505050565b61067e6128e3565b600082815260066020908152604080832081516101608101835281546001600160a01b039081168252600183015416818501526002820180548451818702810187018652818152929593948601938301828280156106fb57602002820191906000526020600020905b8154815260200190600101908083116106e7575b5050509183525050600382810154602083015260048301546001600160a01b031660408301526005830154606083015260068301546080830152600783015460a09092019160ff16908111156107535761075361322b565b60038111156107645761076461322b565b815260200160088201805461077890613399565b80601f01602080910402602001604051908101604052809291908181526020018280546107a490613399565b80156107f15780601f106107c6576101008083540402835291602001916107f1565b820191906000526020600020905b8154815290600101906020018083116107d457829003601f168201915b505050918352505060098201546020820152600a9091015460ff16151560409091015261014081015190915061086e5760405162461bcd60e51b815260206004820152601d60248201527f4d61726b6574706c6163653a204f72646572206e6f742061637469766500000060448201526064015b60405180910390fd5b60008381526009602052604090205460ff161561089d5760405162461bcd60e51b8152600401610865906133d3565b6000838152600a602052604090205460ff16156108cc5760405162461bcd60e51b81526004016108659061340a565b8060a001514210156109205760405162461bcd60e51b815260206004820152601e60248201527f4d61726b6574706c6163653a204f72646572206e6f74207374617274656400006044820152606401610865565b8060c001514211156109745760405162461bcd60e51b815260206004820152601a60248201527f4d61726b6574706c6163653a204f7264657220657870697265640000000000006044820152606401610865565b6004548151604083015180516001600160a01b03909316926303cff639929186916000906109a4576109a461344e565b602090810291909101015160608601516040516001600160e01b031960e087901b1681526001600160a01b03948516600482015293909216602484015260448301526064820152608401602060405180830381865afa158015610a0b573d6000803e3d6000fd5b505050506040513d601f19601f82011682018060405250810190610a2f9190613472565b610a4b5760405162461bcd60e51b81526004016108659061348f565b6000838152600a60205260408120805460ff19166001179055606082015161271090610a79906064906134e9565b610a839190613500565b90506000818360600151610a979190613522565b60808401519091506001600160a01b0316610ba4578260600151341015610ad05760405162461bcd60e51b815260040161086590613535565b8115610b12576005546040516001600160a01b039091169083156108fc029084906000818181858888f19350505050158015610b10573d6000803e3d6000fd5b505b82516040516001600160a01b039091169082156108fc029083906000818181858888f19350505050158015610b4b573d6000803e3d6000fd5b508260600151341115610b9f57836001600160a01b03166108fc846060015134610b759190613522565b6040518115909202916000818181858888f19350505050158015610b9d573d6000803e3d6000fd5b505b610dd5565b608083015160608401516040516323b872dd60e01b81526001600160a01b038316916323b872dd91610bdd918991309190600401613576565b6020604051808303816000875af1158015610bfc573d6000803e3d6000fd5b505050506040513d601f19601f82011682018060405250810190610c209190613472565b610c785760405162461bcd60e51b8152602060048201526024808201527f4d61726b6574706c6163653a205061796d656e74207472616e736665722066616044820152631a5b195960e21b6064820152608401610865565b8215610d415760055460405163a9059cbb60e01b81526001600160a01b039182166004820152602481018590529082169063a9059cbb906044016020604051808303816000875af1158015610cd1573d6000803e3d6000fd5b505050506040513d601f19601f82011682018060405250810190610cf59190613472565b610d415760405162461bcd60e51b815260206004820181905260248201527f4d61726b6574706c6163653a20466565207472616e73666572206661696c65646044820152606401610865565b835160405163a9059cbb60e01b81526001600160a01b039182166004820152602481018490529082169063a9059cbb906044016020604051808303816000875af1158015610d93573d6000803e3d6000fd5b505050506040513d601f19601f82011682018060405250810190610db79190613472565b610dd35760405162461bcd60e51b81526004016108659061359a565b505b60005b836040015151811015610e7f5783602001516001600160a01b03166342842e0e85600001518787604001518581518110610e1457610e1461344e565b60200260200101516040518463ffffffff1660e01b8152600401610e3a93929190613576565b600060405180830381600087803b158015610e5457600080fd5b505af1158015610e68573d6000803e3d6000fd5b505050508080610e77906135dc565b915050610dd8565b5082600001516001600160a01b0316846001600160a01b0316867fe8b2cfa73a11bd60479d92890aeb77bc5f502014ec530c3f0c1774d51680f0a68660600151604051610ece91815260200190565b60405180910390a4505050610ee36001600355565b5050565b600081815260066020908152604080832081516101608101835281546001600160a01b03908116825260018301541681850152600282018054845181870281018701865281815292959394860193830182828015610f6457602002820191906000526020600020905b815481526020019060010190808311610f50575b5050509183525050600382810154602083015260048301546001600160a01b031660408301526005830154606083015260068301546080830152600783015460a09092019160ff1690811115610fbc57610fbc61322b565b6003811115610fcd57610fcd61322b565b8152602001600882018054610fe190613399565b80601f016020809104026020016040519081016040528092919081815260200182805461100d90613399565b801561105a5780601f1061102f5761010080835404028352916020019161105a565b820191906000526020600020905b81548152906001019060200180831161103d57829003601f168201915b505050918352505060098201546020820152600a9091015460ff16151560409091015280519091506001600160a01b031633146110d95760405162461bcd60e51b815260206004820152601c60248201527f4d61726b6574706c6163653a204e6f74206f72646572206f776e6572000000006044820152606401610865565b6000828152600a602052604090205460ff16156111085760405162461bcd60e51b81526004016108659061340a565b600082815260096020526040808220805460ff19166001179055825190516001600160a01b039091169184917fa6eb7cdc219e1518ced964e9a34e61d68a94e4f1569db3e84256ba981ba527539190a35050565b60006060806000806000606061117061290d565b61117861293f565b60408051600080825260208201909252600f60f81b9b939a50919850469750309650945092509050565b336111b060208301836130a1565b6001600160a01b0316146112065760405162461bcd60e51b815260206004820152601b60248201527f4d61726b6574706c6163653a20496e76616c69642062696464657200000000006044820152606401610865565b428160a00135116112545760405162461bcd60e51b815260206004820152601860248201527713585c9ad95d1c1b1858d94e88109a5908195e1c1a5c995960421b6044820152606401610865565b60008160600135116112a85760405162461bcd60e51b815260206004820152601f60248201527f4d61726b6574706c6163653a20496e76616c69642062696420616d6f756e74006044820152606401610865565b60005b6112b8604083018361360b565b90508110156113d0576004546001600160a01b031663c19e67cc6112df60208501856130a1565b6112ec604086018661360b565b858181106112fc576112fc61344e565b6040516001600160e01b031960e087901b1681526001600160a01b0390941660048501526020029190910135602483015250604401602060405180830381865afa15801561134e573d6000803e3d6000fd5b505050506040513d601f19601f820116820180604052508101906113729190613472565b6113be5760405162461bcd60e51b815260206004820152601f60248201527f4d61726b6574706c6163653a20426964646572206e6f7420616c6c6f776564006044820152606401610865565b806113c8816135dc565b9150506112ab565b5060006113e46113df836137c5565b61296c565b600081815260076020526040902090915082906114018282613a93565b506000905061141660a08401608085016130a1565b6001600160a01b0316036114895781606001353410156114845760405162461bcd60e51b8152602060048201526024808201527f4d61726b6574706c6163653a20496e73756666696369656e742062696420616d6044820152631bdd5b9d60e21b6064820152608401610865565b611567565b61149960a08301608084016130a1565b6001600160a01b03166323b872dd6114b460208501856130a1565b3085606001356040518463ffffffff1660e01b81526004016114d893929190613576565b6020604051808303816000875af11580156114f7573d6000803e3d6000fd5b505050506040513d601f19601f8201168201806040525081019061151b9190613472565b6115675760405162461bcd60e51b815260206004820181905260248201527f4d61726b6574706c6163653a20426964207472616e73666572206661696c65646044820152606401610865565b61157460208301836130a1565b6001600160a01b0316817f96d59693caec7bfbd896ccf6bb677a3b2230fec3c76d4b1b482a8670996c7c6684606001356040516115b391815260200190565b60405180910390a35050565b6007602052600090815260409020805460018201546003830154600484015460058501546006860180546001600160a01b03968716979587169694959490931693919261160b90613399565b80601f016020809104026020016040519081016040528092919081815260200182805461163790613399565b80156116845780601f1061165957610100808354040283529160200191611684565b820191906000526020600020905b81548152906001019060200180831161166757829003601f168201915b5050505050908060070154905087565b60009182526002602090815260408084206001600160a01b0393909316845291905290205460ff1690565b6006602081905260009182526040909120805460018201546003830154600484015460058501549585015460078601546008870180546001600160a01b03978816999688169895979094169594929360ff909216929161171e90613399565b80601f016020809104026020016040519081016040528092919081815260200182805461174a90613399565b80156117975780601f1061176c57610100808354040283529160200191611797565b820191906000526020600020905b81548152906001019060200180831161177a57829003601f168201915b505050506009830154600a9093015491929160ff1690508a565b336117bf60208301836130a1565b6001600160a01b0316146118155760405162461bcd60e51b815260206004820152601b60248201527f4d61726b6574706c6163653a20496e76616c69642073656c6c657200000000006044820152606401610865565b428160a0013511156118695760405162461bcd60e51b815260206004820152601e60248201527f4d61726b6574706c6163653a204f72646572206e6f74207374617274656400006044820152606401610865565b428160c00135116118bc5760405162461bcd60e51b815260206004820152601a60248201527f4d61726b6574706c6163653a204f7264657220657870697265640000000000006044820152606401610865565b60008160600135116119105760405162461bcd60e51b815260206004820152601a60248201527f4d61726b6574706c6163653a20496e76616c69642070726963650000000000006044820152606401610865565b600061191f604083018361360b565b90501161196e5760405162461bcd60e51b815260206004820181905260248201527f4d61726b6574706c6163653a204e6f20746f6b656e73207370656369666965646044820152606401610865565b60005b61197e604083018361360b565b9050811015611b84576004546001600160a01b031663256893926119a560208501856130a1565b6119b2604086018661360b565b858181106119c2576119c261344e565b6040516001600160e01b031960e087901b1681526001600160a01b0390941660048501526020029190910135602483015250604401602060405180830381865afa158015611a14573d6000803e3d6000fd5b505050506040513d601f19601f82011682018060405250810190611a389190613472565b611a955760405162461bcd60e51b815260206004820152602860248201527f4d61726b6574706c6163653a2053656c6c6572206e6f7420616c6c6f77656420604482015267746f20747261646560c01b6064820152608401610865565b611aa260208301836130a1565b6001600160a01b0316611abb60408401602085016130a1565b6001600160a01b0316636352211e611ad6604086018661360b565b85818110611ae657611ae661344e565b905060200201356040518263ffffffff1660e01b8152600401611b0b91815260200190565b602060405180830381865afa158015611b28573d6000803e3d6000fd5b505050506040513d601f19601f82011682018060405250810190611b4c9190613b39565b6001600160a01b031614611b725760405162461bcd60e51b815260040161086590613b56565b80611b7c816135dc565b915050611971565b506000611b98611b9383613bbf565b612a4e565b60008181526009602052604090205490915060ff1615611bca5760405162461bcd60e51b8152600401610865906133d3565b6000818152600a602052604090205460ff1615611c295760405162461bcd60e51b815260206004820152601c60248201527f4d61726b6574706c6163653a204f726465722066756c66696c6c6564000000006044820152606401610865565b60008181526006602052604090208290611c438282613cf9565b50611c53905060208301836130a1565b6001600160a01b0316817fad2a008aff1f25a8f8ea805ebb3c76f54aa947dc60b00dfa7ec94f06bd1eb7fc611c8f610100860160e08701613dd7565b6040516115b39190613df4565b611ca46128e3565b600081815260076020908152604080832081516101008101835281546001600160a01b03908116825260018301541681850152600282018054845181870281018701865281815292959394860193830182828015611d2157602002820191906000526020600020905b815481526020019060010190808311611d0d575b50505091835250506003820154602082015260048201546001600160a01b0316604082015260058201546060820152600682018054608090920191611d6590613399565b80601f0160208091040260200160405190810160405280929190818152602001828054611d9190613399565b8015611dde5780601f10611db357610100808354040283529160200191611dde565b820191906000526020600020905b815481529060010190602001808311611dc157829003601f168201915b505050505081526020016007820154815250509050428160a0015111611e415760405162461bcd60e51b815260206004820152601860248201527713585c9ad95d1c1b1858d94e88109a5908195e1c1a5c995960421b6044820152606401610865565b60005b816040015151811015611f2357336001600160a01b031682602001516001600160a01b0316636352211e84604001518481518110611e8457611e8461344e565b60200260200101516040518263ffffffff1660e01b8152600401611eaa91815260200190565b602060405180830381865afa158015611ec7573d6000803e3d6000fd5b505050506040513d601f19601f82011682018060405250810190611eeb9190613b39565b6001600160a01b031614611f115760405162461bcd60e51b815260040161086590613b56565b80611f1b816135dc565b915050611e44565b506004548151604083015180516001600160a01b03909316926303cff6399233929091600090611f5557611f5561344e565b602090810291909101015160608601516040516001600160e01b031960e087901b1681526001600160a01b03948516600482015293909216602484015260448301526064820152608401602060405180830381865afa158015611fbc573d6000803e3d6000fd5b505050506040513d601f19601f82011682018060405250810190611fe09190613472565b611ffc5760405162461bcd60e51b81526004016108659061348f565b60006127106064836060015161201291906134e9565b61201c9190613500565b905060008183606001516120309190613522565b60808401519091506001600160a01b03166120ba578115612087576005546040516001600160a01b039091169083156108fc029084906000818181858888f19350505050158015612085573d6000803e3d6000fd5b505b604051339082156108fc029083906000818181858888f193505050501580156120b4573d6000803e3d6000fd5b50612217565b608083015182156121885760055460405163a9059cbb60e01b81526001600160a01b039182166004820152602481018590529082169063a9059cbb906044016020604051808303816000875af1158015612118573d6000803e3d6000fd5b505050506040513d601f19601f8201168201806040525081019061213c9190613472565b6121885760405162461bcd60e51b815260206004820181905260248201527f4d61726b6574706c6163653a20466565207472616e73666572206661696c65646044820152606401610865565b60405163a9059cbb60e01b8152336004820152602481018390526001600160a01b0382169063a9059cbb906044016020604051808303816000875af11580156121d5573d6000803e3d6000fd5b505050506040513d601f19601f820116820180604052508101906121f99190613472565b6122155760405162461bcd60e51b81526004016108659061359a565b505b60005b8360400151518110156122c15783602001516001600160a01b03166342842e0e338660000151876040015185815181106122565761225661344e565b60200260200101516040518463ffffffff1660e01b815260040161227c93929190613576565b600060405180830381600087803b15801561229657600080fd5b505af11580156122aa573d6000803e3d6000fd5b5050505080806122b9906135dc565b91505061221a565b50600084815260076020526040812080546001600160a01b031990811682556001820180549091169055906122f96002830182612f95565b6000600383018190556004830180546001600160a01b031916905560058301819055612329906006840190612fb3565b50600060079190910181905583516040516001600160a01b0390911691339187917fbe1b79f026cc91e0898d6e87bc428768f0f74470a90268c2e71c28d82a2a450b91a450505061237a6001600355565b50565b600082815260026020526040902060010154612398816127d8565b6106388383612876565b6123aa6128e3565b6000805b83811015612689576000600660008787858181106123ce576123ce61344e565b6020908102929092013583525081810192909252604090810160002081516101608101835281546001600160a01b0390811682526001830154168185015260028201805484518187028101870186528181529295939486019383018282801561245657602002820191906000526020600020905b815481526020019060010190808311612442575b5050509183525050600382810154602083015260048301546001600160a01b031660408301526005830154606083015260068301546080830152600783015460a09092019160ff16908111156124ae576124ae61322b565b60038111156124bf576124bf61322b565b81526020016008820180546124d390613399565b80601f01602080910402602001604051908101604052809291908181526020018280546124ff90613399565b801561254c5780601f106125215761010080835404028352916020019161254c565b820191906000526020600020905b81548152906001019060200180831161252f57829003601f168201915b505050918352505060098201546020820152600a9091015460ff1615156040909101526101408101519091506125c45760405162461bcd60e51b815260206004820152601d60248201527f4d61726b6574706c6163653a204f72646572206e6f74206163746976650000006044820152606401610865565b600960008787858181106125da576125da61344e565b602090810292909201358352508101919091526040016000205460ff16156126145760405162461bcd60e51b8152600401610865906133d3565b600a600087878581811061262a5761262a61344e565b602090810292909201358352508101919091526040016000205460ff16156126645760405162461bcd60e51b81526004016108659061340a565b60608101516126739084613e02565b9250508080612681906135dc565b9150506123ae565b50803410156126aa5760405162461bcd60e51b815260040161086590613535565b60005b838110156126e9576126d78585838181106126ca576126ca61344e565b9050602002013584612ade565b806126e1816135dc565b9150506126ad565b5080341115612733576001600160a01b0382166108fc6127098334613522565b6040518115909202916000818181858888f19350505050158015612731573d6000803e3d6000fd5b505b506106716001600355565b7fa49807205ce4d355092ef5a8a18f56e8913cf4a201fbe287825b095693c21775612768816127d8565b50600580546001600160a01b0319166001600160a01b0392909216919091179055565b7fa49807205ce4d355092ef5a8a18f56e8913cf4a201fbe287825b095693c217756127b5816127d8565b50600480546001600160a01b0319166001600160a01b0392909216919091179055565b61237a8133612e4a565b60006127ee8383611694565b61286e5760008381526002602090815260408083206001600160a01b03861684529091529020805460ff191660011790556128263390565b6001600160a01b0316826001600160a01b0316847f2f8788117e7eff1d82e926ec794901d17c78024a50270940304540a733656f0d60405160405180910390a450600161060d565b50600061060d565b60006128828383611694565b1561286e5760008381526002602090815260408083206001600160a01b0386168085529252808320805460ff1916905551339286917ff6391f5c32d9c69d2a47ea670b442974b53935d1edc7fd64eb21e047a839171b9190a450600161060d565b60026003540361290657604051633ee5aeb560e01b815260040160405180910390fd5b6002600355565b606061293a7f00000000000000000000000000000000000000000000000000000000000000006000612e83565b905090565b606061293a7f00000000000000000000000000000000000000000000000000000000000000006001612e83565b60007f9ed3cfdf55238be06b7cc7d8fa4229b49fedf30eeda9ec7b59ff37a70ed028248260000151836020015184604001516040516020016129ae9190613e15565b60405160208183030381529060405280519060200120856060015186608001518760a001518860e00151604051602001612a319897969594939291909788526001600160a01b03968716602089015294861660408801526060870193909352608086019190915290921660a084015260c083019190915260e08201526101000190565b604051602081830303815290604052805190602001209050919050565b60007f2407cf709cce04a1aee7d49b3c1c154662ff7901ababa51b33426140ad2f55ca826000015183602001518460400151604051602001612a909190613e15565b60405160208183030381529060405280519060200120856060015186608001518760a001518860c001518960e001518a6101200151604051602001612a319a99989796959493929190613e4b565b600082815260066020908152604080832081516101608101835281546001600160a01b03908116825260018301541681850152600282018054845181870281018701865281815292959394860193830182828015612b5b57602002820191906000526020600020905b815481526020019060010190808311612b47575b5050509183525050600382810154602083015260048301546001600160a01b031660408301526005830154606083015260068301546080830152600783015460a09092019160ff1690811115612bb357612bb361322b565b6003811115612bc457612bc461322b565b8152602001600882018054612bd890613399565b80601f0160208091040260200160405190810160405280929190818152602001828054612c0490613399565b8015612c515780601f10612c2657610100808354040283529160200191612c51565b820191906000526020600020905b815481529060010190602001808311612c3457829003601f168201915b50505091835250506009820154602080830191909152600a9283015460ff16151560409283015260008781529290528120805460ff1916600117905560608201519192509061271090612ca6906064906134e9565b612cb09190613500565b90506000818360600151612cc49190613522565b90508115612d08576005546040516001600160a01b039091169083156108fc029084906000818181858888f19350505050158015612d06573d6000803e3d6000fd5b505b82516040516001600160a01b039091169082156108fc029083906000818181858888f19350505050158015612d41573d6000803e3d6000fd5b5060005b836040015151811015612dec5783602001516001600160a01b03166342842e0e85600001518787604001518581518110612d8157612d8161344e565b60200260200101516040518463ffffffff1660e01b8152600401612da793929190613576565b600060405180830381600087803b158015612dc157600080fd5b505af1158015612dd5573d6000803e3d6000fd5b505050508080612de4906135dc565b915050612d45565b5082600001516001600160a01b0316846001600160a01b0316867fe8b2cfa73a11bd60479d92890aeb77bc5f502014ec530c3f0c1774d51680f0a68660600151604051612e3b91815260200190565b60405180910390a45050505050565b612e548282611694565b610ee35760405163e2517d3f60e01b81526001600160a01b038216600482015260248101839052604401610865565b606060ff8314612e9d57612e9683612f2e565b905061060d565b818054612ea990613399565b80601f0160208091040260200160405190810160405280929190818152602001828054612ed590613399565b8015612f225780601f10612ef757610100808354040283529160200191612f22565b820191906000526020600020905b815481529060010190602001808311612f0557829003601f168201915b5050505050905061060d565b60606000612f3b83612f6d565b604080516020808252818301909252919250600091906020820181803683375050509182525060208101929092525090565b600060ff8216601f81111561060d57604051632cd44ac360e21b815260040160405180910390fd5b508054600082559060005260206000209081019061237a9190612fe9565b508054612fbf90613399565b6000825580601f10612fcf575050565b601f01602090049060005260206000209081019061237a91905b5b80821115612ffe5760008155600101612fea565b5090565b60006020828403121561301457600080fd5b81356001600160e01b03198116811461302c57600080fd5b9392505050565b60006020828403121561304557600080fd5b5035919050565b6001600160a01b038116811461237a57600080fd5b803561306c8161304c565b919050565b6000806040838503121561308457600080fd5b8235915060208301356130968161304c565b809150509250929050565b6000602082840312156130b357600080fd5b813561302c8161304c565b6000815180845260005b818110156130e4576020818501810151868301820152016130c8565b506000602082860101526020601f19601f83011685010191505092915050565b60ff60f81b881681526000602060e08184015261312460e084018a6130be565b8381036040850152613136818a6130be565b606085018990526001600160a01b038816608086015260a0850187905284810360c0860152855180825283870192509083019060005b818110156131885783518352928401929184019160010161316c565b50909c9b505050505050505050505050565b6000602082840312156131ac57600080fd5b81356001600160401b038111156131c257600080fd5b8201610100818503121561302c57600080fd5b6001600160a01b038881168252878116602083015260408201879052851660608201526080810184905260e060a08201819052600090613217908301856130be565b90508260c083015298975050505050505050565b634e487b7160e01b600052602160045260246000fd5b6004811061325f57634e487b7160e01b600052602160045260246000fd5b9052565b6001600160a01b038b811682528a81166020830152604082018a9052881660608201526080810187905260a0810186905260006101406132a660c0840188613241565b8060e08401526132b8818401876130be565b61010084019590955250509015156101209091015298975050505050505050565b6000602082840312156132eb57600080fd5b81356001600160401b0381111561330157600080fd5b8201610160818503121561302c57600080fd5b60008060006040848603121561332957600080fd5b83356001600160401b038082111561334057600080fd5b818601915086601f83011261335457600080fd5b81358181111561336357600080fd5b8760208260051b850101111561337857600080fd5b6020928301955093505084013561338e8161304c565b809150509250925092565b600181811c908216806133ad57607f821691505b6020821081036133cd57634e487b7160e01b600052602260045260246000fd5b50919050565b6020808252601c908201527f4d61726b6574706c6163653a204f726465722063616e63656c6c656400000000604082015260600190565b60208082526024908201527f4d61726b6574706c6163653a204f7264657220616c72656164792066756c66696040820152631b1b195960e21b606082015260800190565b634e487b7160e01b600052603260045260246000fd5b801515811461237a57600080fd5b60006020828403121561348457600080fd5b815161302c81613464565b60208082526024908201527f4d61726b6574706c6163653a205472616e73616374696f6e206e6f7420616c6c6040820152631bddd95960e21b606082015260800190565b634e487b7160e01b600052601160045260246000fd5b808202811582820484141761060d5761060d6134d3565b60008261351d57634e487b7160e01b600052601260045260246000fd5b500490565b8181038181111561060d5761060d6134d3565b60208082526021908201527f4d61726b6574706c6163653a20496e73756666696369656e74207061796d656e6040820152601d60fa1b606082015260800190565b6001600160a01b039384168152919092166020820152604081019190915260600190565b60208082526022908201527f4d61726b6574706c6163653a2053656c6c6572207061796d656e74206661696c604082015261195960f21b606082015260800190565b6000600182016135ee576135ee6134d3565b5060010190565b634e487b7160e01b600052604160045260246000fd5b6000808335601e1984360301811261362257600080fd5b8301803591506001600160401b0382111561363c57600080fd5b6020019150600581901b360382131561365457600080fd5b9250929050565b60405161010081016001600160401b038111828210171561367e5761367e6135f5565b60405290565b60405161016081016001600160401b038111828210171561367e5761367e6135f5565b604051601f8201601f191681016001600160401b03811182821017156136cf576136cf6135f5565b604052919050565b600082601f8301126136e857600080fd5b813560206001600160401b03821115613703576137036135f5565b8160051b6137128282016136a7565b928352848101820192828101908785111561372c57600080fd5b83870192505b8483101561374b57823582529183019190830190613732565b979650505050505050565b600082601f83011261376757600080fd5b81356001600160401b03811115613780576137806135f5565b613793601f8201601f19166020016136a7565b8181528460208386010111156137a857600080fd5b816020850160208301376000918101602001919091529392505050565b600061010082360312156137d857600080fd5b6137e061365b565b6137e983613061565b81526137f760208401613061565b602082015260408301356001600160401b038082111561381657600080fd5b613822368387016136d7565b60408401526060850135606084015261383d60808601613061565b608084015260a085013560a084015260c085013591508082111561386057600080fd5b5061386d36828601613756565b60c08301525060e092830135928101929092525090565b6000813561060d8161304c565b80546001600160a01b0319166001600160a01b0392909216919091179055565b5b81811015610ee357600081556001016138b2565b6001600160401b038311156138dd576138dd6135f5565b680100000000000000008311156138f6576138f66135f5565b80548382558084101561391c5781600052602060002061391a8282018683016138b1565b505b50818160005260208060002060005b86811015613945578335828201559282019260010161392b565b50505050505050565b6000808335601e1984360301811261396557600080fd5b8301803591506001600160401b0382111561397f57600080fd5b60200191503681900382131561365457600080fd5b601f82111561067157806000526020600020601f840160051c810160208510156139bb5750805b6139cd601f850160051c8301826138b1565b5050505050565b6001600160401b038311156139eb576139eb6135f5565b6139ff836139f98354613399565b83613994565b6000601f841160018114613a335760008515613a1b5750838201355b600019600387901b1c1916600186901b1783556139cd565b600083815260209020601f19861690835b82811015613a645786850135825560209485019460019092019101613a44565b5086821015613a815760001960f88860031b161c19848701351681555b505060018560011b0183555050505050565b8135613a9e8161304c565b613aa88183613891565b506020820135613ab78161304c565b613ac48160018401613891565b50613ad2604083018361360b565b613ae08183600286016138c6565b505060608201356003820155613b04613afb60808401613884565b60048301613891565b60a08201356005820155613b1b60c083018361394e565b613b298183600686016139d4565b505060e082013560078201555050565b600060208284031215613b4b57600080fd5b815161302c8161304c565b60208082526026908201527f4d61726b6574706c6163653a2053656c6c657220646f6573206e6f74206f776e604082015265103a37b5b2b760d11b606082015260800190565b6004811061237a57600080fd5b803561306c81613b9c565b803561306c81613464565b60006101608236031215613bd257600080fd5b613bda613684565b613be383613061565b8152613bf160208401613061565b602082015260408301356001600160401b0380821115613c1057600080fd5b613c1c368387016136d7565b604084015260608501356060840152613c3760808601613061565b608084015260a085013560a084015260c085013560c0840152613c5c60e08601613ba9565b60e084015261010091508185013581811115613c7757600080fd5b613c8336828801613756565b83850152505050610120808401358183015250610140613ca4818501613bb4565b9082015292915050565b6000813561060d81613b9c565b60048210613cd957634e487b7160e01b600052602160045260246000fd5b60ff1981541660ff831681178255505050565b6000813561060d81613464565b613d0b613d0583613884565b82613891565b613d23613d1a60208401613884565b60018301613891565b613d30604083018361360b565b613d3e8183600286016138c6565b505060608201356003820155613d59613afb60808401613884565b60a0820135600582015560c08201356006820155613d85613d7c60e08401613cae565b60078301613cbb565b613d9361010083018361394e565b613da18183600886016139d4565b50506101208201356009820155610ee3613dbe6101408401613cec565b600a830160ff1981541660ff8315151681178255505050565b600060208284031215613de957600080fd5b813561302c81613b9c565b6020810161060d8284613241565b8082018082111561060d5761060d6134d3565b815160009082906020808601845b83811015613e3f57815185529382019390820190600101613e23565b50929695505050505050565b8a81526001600160a01b038a8116602083015289811660408301526060820189905260808201889052861660a082015260c0810185905260e081018490526101408101613e9c610100830185613241565b826101208301529b9a505050505050505050505056fea26469706673582212207d6215289ac540685b4d31d8152f3129aa66daaee3ac6b2745c151bd316eb17e64736f6c63430008140033",
  "linkReferences": {},
  "deployedLinkReferences": {}
}