{
  "_format": "hh-sol-artifact-1",
  "contractName": "MarketplaceGuard",
  "sourceName": "contracts/MarketplaceGuard.sol",
  "abi": [
    {
      "inputs": [
        {
          "internalType": "address",
          "name": "admin",
          "type": "address"
        }
      ],
      "stateMutability": "nonpayable",
      "type": "constructor"
    },
    {
      "inputs": [],
      "name": "AccessControlBadConfirmation",
      "type": "error"
    },
    {
      "inputs": [
        {
          "internalType": "address",
          "name": "account",
          "type": "address"
        },
        {
          "internalType": "bytes32",
          "name": "neededRole",
          "type": "bytes32"
        }
      ],
      "name": "AccessControlUnauthorizedAccount",
      "type": "error"
    },
    {
      "anonymous": false,
      "inputs": [
        {
          "indexed": true,
          "internalType": "bytes32",
          "name": "policyId",
          "type": "bytes32"
        },
        {
          "components": [
            {
              "internalType": "bool",
              "name": "requiresKYC",
              "type": "bool"
            },
            {
              "internalType": "bool",
              "name": "requiresWhitelist",
              "type": "bool"
            },
            {
              "internalType": "bool",
              "name": "allowBundles",
              "type": "bool"
            },
            {
              "internalType": "bool",
              "name": "allowBids",
              "type": "bool"
            },
            {
              "internalType": "uint256",
              "name": "minPrice",
              "type": "uint256"
            },
            {
              "internalType": "uint256",
              "name": "maxPrice",
              "type": "uint256"
            }
          ],
          "indexed": false,
          "internalType": "struct IMarketplaceGuard.PolicyFlags",
          "name": "flags",
          "type": "tuple"
        }
      ],
      "name": "PolicyUpdated",
      "type": "event"
    },
    {
      "anonymous": false,
      "inputs": [
        {
          "indexed": true,
          "internalType": "bytes32",
          "name": "role",
          "type": "bytes32"
        },
        {
          "indexed": true,
          "internalType": "bytes32",
          "name": "previousAdminRole",
          "type": "bytes32"
        },
        {
          "indexed": true,
          "internalType": "bytes32",
          "name": "newAdminRole",
          "type": "bytes32"
        }
      ],
      "name": "RoleAdminChanged",
      "type": "event"
    },
    {
      "anonymous": false,
      "inputs": [
        {
          "indexed": true,
          "internalType": "bytes32",
          "name": "role",
          "type": "bytes32"
        },
        {
          "indexed": true,
          "internalType": "address",
          "name": "account",
          "type": "address"
        },
        {
          "indexed": true,
          "internalType": "address",
          "name": "sender",
          "type": "address"
        }
      ],
      "name": "RoleGranted",
      "type": "event"
    },
    {
      "anonymous": false,
      "inputs": [
        {
          "indexed": true,
          "internalType": "bytes32",
          "name": "role",
          "type": "bytes32"
        },
        {
          "indexed": true,
          "internalType": "address",
          "name": "account",
          "type": "address"
        },
        {
          "indexed": true,
          "internalType": "address",
          "name": "sender",
          "type": "address"
        }
      ],
      "name": "RoleRevoked",
      "type": "event"
    },
    {
      "anonymous": false,
      "inputs": [
        {
          "indexed": true,
          "internalType": "address",
          "name": "user",
          "type": "address"
        },
        {
          "indexed": true,
          "internalType": "address",
          "name": "admin",
          "type": "address"
        }
      ],
      "name": "UserBlacklisted",
      "type": "event"
    },
    {
      "anonymous": false,
      "inputs": [
        {
          "indexed": true,
          "internalType": "address",
          "name": "user",
          "type": "address"
        },
        {
          "indexed": true,
          "internalType": "address",
          "name": "admin",
          "type": "address"
        }
      ],
      "name": "UserWhitelisted",
      "type": "event"
    },
    {
      "inputs": [],
      "name": "ADMIN_ROLE",
      "outputs": [
        {
          "internalType": "bytes32",
          "name": "",
          "type": "bytes32"
        }
      ],
      "stateMutability": "view",
      "type": "function"
    },
    {
      "inputs": [],
      "name": "DEFAULT_ADMIN_ROLE",
      "outputs": [
        {
          "internalType": "bytes32",
          "name": "",
          "type": "bytes32"
        }
      ],
      "stateMutability": "view",
      "type": "function"
    },
    {
      "inputs": [],
      "name": "DEFAULT_POLICY",
      "outputs": [
        {
          "internalType": "bytes32",
          "name": "",
          "type": "bytes32"
        }
      ],
      "stateMutability": "view",
      "type": "function"
    },
    {
      "inputs": [],
      "name": "POLICY_MANAGER_ROLE",
      "outputs": [
        {
          "internalType": "bytes32",
          "name": "",
          "type": "bytes32"
        }
      ],
      "stateMutability": "view",
      "type": "function"
    },
    {
      "inputs": [
        {
          "internalType": "address",
          "name": "",
          "type": "address"
        }
      ],
      "name": "blacklist",
      "outputs": [
        {
          "internalType": "bool",
          "name": "",
          "type": "bool"
        }
      ],
      "stateMutability": "view",
      "type": "function"
    },
    {
      "inputs": [
        {
          "internalType": "address",
          "name": "user",
          "type": "address"
        }
      ],
      "name": "blacklistUser",
      "outputs": [],
      "stateMutability": "nonpayable",
      "type": "function"
    },
    {
      "inputs": [
        {
          "internalType": "bytes32",
          "name": "role",
          "type": "bytes32"
        }
      ],
      "name": "getRoleAdmin",
      "outputs": [
        {
          "internalType": "bytes32",
          "name": "",
          "type": "bytes32"
        }
      ],
      "stateMutability": "view",
      "type": "function"
    },
    {
      "inputs": [
        {
          "internalType": "bytes32",
          "name": "role",
          "type": "bytes32"
        },
        {
          "internalType": "address",
          "name": "account",
          "type": "address"
        }
      ],
      "name": "grantRole",
      "outputs": [],
      "stateMutability": "nonpayable",
      "type": "function"
    },
    {
      "inputs": [
        {
          "internalType": "bytes32",
          "name": "role",
          "type": "bytes32"
        },
        {
          "internalType": "address",
          "name": "account",
          "type": "address"
        }
      ],
      "name": "hasRole",
      "outputs": [
        {
          "internalType": "bool",
          "name": "",
          "type": "bool"
        }
      ],
      "stateMutability": "view",
      "type": "function"
    },
    {
      "inputs": [
        {
          "internalType": "address",
          "name": "user",
          "type": "address"
        },
        {
          "internalType": "uint256",
          "name": "tokenId",
          "type": "uint256"
        }
      ],
      "name": "isAllowedToBid",
      "outputs": [
        {
          "internalType": "bool",
          "name": "",
          "type": "bool"
        }
      ],
      "stateMutability": "view",
      "type": "function"
    },
    {
      "inputs": [
        {
          "internalType": "address",
          "name": "user",
          "type": "address"
        },
        {
          "internalType": "uint256",
          "name": "tokenId",
          "type": "uint256"
        }
      ],
      "name": "isAllowedToTrade",
      "outputs": [
        {
          "internalType": "bool",
          "name": "",
          "type": "bool"
        }
      ],
      "stateMutability": "view",
      "type": "function"
    },
    {
      "inputs": [
        {
          "internalType": "address",
          "name": "",
          "type": "address"
        }
      ],
      "name": "kycVerified",
      "outputs": [
        {
          "internalType": "bool",
          "name": "",
          "type": "bool"
        }
      ],
      "stateMutability": "view",
      "type": "function"
    },
    {
      "inputs": [
        {
          "internalType": "bytes32",
          "name": "",
          "type": "bytes32"
        }
      ],
      "name": "policies",
      "outputs": [
        {
          "internalType": "bool",
          "name": "requiresKYC",
          "type": "bool"
        },
        {
          "internalType": "bool",
          "name": "requiresWhitelist",
          "type": "bool"
        },
        {
          "internalType": "bool",
          "name": "allowBundles",
          "type": "bool"
        },
        {
          "internalType": "bool",
          "name": "allowBids",
          "type": "bool"
        },
        {
          "internalType": "uint256",
          "name": "minPrice",
          "type": "uint256"
        },
        {
          "internalType": "uint256",
          "name": "maxPrice",
          "type": "uint256"
        }
      ],
      "stateMutability": "view",
      "type": "function"
    },
    {
      "inputs": [
        {
          "internalType": "bytes32",
          "name": "role",
          "type": "bytes32"
        },
        {
          "internalType": "address",
          "name": "callerConfirmation",
          "type": "address"
        }
      ],
      "name": "renounceRole",
      "outputs": [],
      "stateMutability": "nonpayable",
      "type": "function"
    },
    {
      "inputs": [
        {
          "internalType": "address",
          "name": "user",
          "type": "address"
        }
      ],
      "name": "revokeKYC",
      "outputs": [],
      "stateMutability": "nonpayable",
      "type": "function"
    },
    {
      "inputs": [
        {
          "internalType": "bytes32",
          "name": "role",
          "type": "bytes32"
        },
        {
          "internalType": "address",
          "name": "account",
          "type": "address"
        }
      ],
      "name": "revokeRole",
      "outputs": [],
      "stateMutability": "nonpayable",
      "type": "function"
    },
    {
      "inputs": [
        {
          "internalType": "bytes4",
          "name": "interfaceId",
          "type": "bytes4"
        }
      ],
      "name": "supportsInterface",
      "outputs": [
        {
          "internalType": "bool",
          "name": "",
          "type": "bool"
        }
      ],
      "stateMutability": "view",
      "type": "function"
    },
    {
      "inputs": [
        {
          "internalType": "bytes32",
          "name": "policyId",
          "type": "bytes32"
        },
        {
          "components": [
            {
              "internalType": "bool",
              "name": "requiresKYC",
              "type": "bool"
            },
            {
              "internalType": "bool",
              "name": "requiresWhitelist",
              "type": "bool"
            },
            {
              "internalType": "bool",
              "name": "allowBundles",
              "type": "bool"
            },
            {
              "internalType": "bool",
              "name": "allowBids",
              "type": "bool"
            },
            {
              "internalType": "uint256",
              "name": "minPrice",
              "type": "uint256"
            },
            {
              "internalType": "uint256",
              "name": "maxPrice",
              "type": "uint256"
            }
          ],
          "internalType": "struct IMarketplaceGuard.PolicyFlags",
          "name": "flags",
          "type": "tuple"
        }
      ],
      "name": "updatePolicy",
      "outputs": [],
      "stateMutability": "nonpayable",
      "type": "function"
    },
    {
      "inputs": [
        {
          "internalType": "address",
          "name": "seller",
          "type": "address"
        },
        {
          "internalType": "address",
          "name": "buyer",
          "type": "address"
        },
        {
          "internalType": "uint256",
          "name": "tokenId",
          "type": "uint256"
        },
        {
          "internalType": "uint256",
          "name": "price",
          "type": "uint256"
        }
      ],
      "name": "validateTransaction",
      "outputs": [
        {
          "internalType": "bool",
          "name": "",
          "type": "bool"
        }
      ],
      "stateMutability": "view",
      "type": "function"
    },
    {
      "inputs": [
        {
          "internalType": "address",
          "name": "user",
          "type": "address"
        }
      ],
      "name": "verifyKYC",
      "outputs": [],
      "stateMutability": "nonpayable",
      "type": "function"
    },
    {
      "inputs": [
        {
          "internalType": "address",
          "name": "",
          "type": "address"
        }
      ],
      "name": "whitelist",
      "outputs": [
        {
          "internalType": "bool",
          "name": "",
          "type": "bool"
        }
      ],
      "stateMutability": "view",
      "type": "function"
    },
    {
      "inputs": [
        {
          "internalType": "address",
          "name": "user",
          "type": "address"
        }
      ],
      "name": "whitelistUser",
      "outputs": [],
      "stateMutability": "nonpayable",
      "type": "function"
    }
  ],
  "bytecode": "0x608060405234801561001057600080fd5b50604051620012a2380380620012a283398101604081905261003191610264565b61003c6000826101b8565b506100677fa49807205ce4d355092ef5a8a18f56e8913cf4a201fbe287825b095693c21775826101b8565b506100927f2724e1c963eb1465b51230910d2ca7be74b71883f8cab72076d8c12e086c2b48826101b8565b50506040805160c081018252600080825260016020808401828152948401828152606085019283526080850184815260001960a087019081527f7a7b4e2afa09b860612e97c3a767b18dbe6cbf25c966035cc8fa981f9c94920b909552600390925293517ff5f2164005cf7f4c7dd595e6c245946d1c10feb5297ef95390becdaf9b4340628054965195519351151563010000000263ff0000001994151562010000029490941663ffff0000199615156101000261ff00199315159390931661ffff19909816979097179190911794909416949094171790915590517ff5f2164005cf7f4c7dd595e6c245946d1c10feb5297ef95390becdaf9b43406355517ff5f2164005cf7f4c7dd595e6c245946d1c10feb5297ef95390becdaf9b43406455610294565b6000828152602081815260408083206001600160a01b038516845290915281205460ff1661025a576000838152602081815260408083206001600160a01b03861684529091529020805460ff191660011790556102123390565b6001600160a01b0316826001600160a01b0316847f2f8788117e7eff1d82e926ec794901d17c78024a50270940304540a733656f0d60405160405180910390a450600161025e565b5060005b92915050565b60006020828403121561027657600080fd5b81516001600160a01b038116811461028d57600080fd5b9392505050565b610ffe80620002a46000396000f3fe608060405234801561001057600080fd5b50600436106101425760003560e01c806391d14854116100b8578063c457c7191161007c578063c457c719146102d7578063ce8dbb91146102ea578063d547741f146102ff578063ddbfd8ef14610312578063f9f92be414610398578063fcbca456146103bb57600080fd5b806391d14854146102635780639b19251a14610276578063a217fddf14610299578063a5410a66146102a1578063c19e67cc146102c457600080fd5b80632f2ff15d1161010a5780632f2ff15d146101ed57806336568abe1461020257806338d160111461021557806339ba645b146102285780634a4c560d1461023b57806375b238fc1461024e57600080fd5b806301ffc9a71461014757806303cff6391461016f5780631e1cc25f14610182578063248a9ca3146101b757806325689392146101da575b600080fd5b61015a610155366004610cfb565b6103ce565b60405190151581526020015b60405180910390f35b61015a61017d366004610d48565b610405565b6101a97f2724e1c963eb1465b51230910d2ca7be74b71883f8cab72076d8c12e086c2b4881565b604051908152602001610166565b6101a96101c5366004610d8a565b60009081526020819052604090206001015490565b61015a6101e8366004610da3565b610600565b6102006101fb366004610dcd565b61076a565b005b610200610210366004610dcd565b610795565b610200610223366004610df9565b6107cd565b610200610236366004610df9565b61080a565b610200610249366004610df9565b610844565b6101a9600080516020610fa983398151915281565b61015a610271366004610dcd565b61092a565b61015a610284366004610df9565b60016020526000908152604090205460ff1681565b6101a9600081565b61015a6102af366004610df9565b60046020526000908152604090205460ff1681565b61015a6102d2366004610da3565b610953565b6102006102e5366004610e14565b610a91565b6101a9600080516020610f8983398151915281565b61020061030d366004610dcd565b610b15565b610361610320366004610d8a565b60036020526000908152604090208054600182015460029092015460ff80831693610100840482169362010000810483169363010000009091049092169186565b60408051961515875294151560208701529215159385019390935215156060840152608083019190915260a082015260c001610166565b61015a6103a6366004610df9565b60026020526000908152604090205460ff1681565b6102006103c9366004610df9565b610b3a565b60006001600160e01b03198216637965db0b60e01b14806103ff57506301ffc9a760e01b6001600160e01b03198316145b92915050565b6001600160a01b03841660009081526002602052604081205460ff168061044457506001600160a01b03841660009081526002602052604090205460ff165b15610451575060006105f8565b600080516020610f89833981519152600052600360209081526040805160c0810182527ff5f2164005cf7f4c7dd595e6c245946d1c10feb5297ef95390becdaf9b4340625460ff80821615158352610100820481161580159584018690526201000083048216151594840194909452630100000090910416151560608201527ff5f2164005cf7f4c7dd595e6c245946d1c10feb5297ef95390becdaf9b4340635460808201527ff5f2164005cf7f4c7dd595e6c245946d1c10feb5297ef95390becdaf9b4340645460a0820152919061056657506001600160a01b03861660009081526001602052604090205460ff16158061056657506001600160a01b03851660009081526001602052604090205460ff16155b156105755760009150506105f8565b805180156105bf57506001600160a01b03861660009081526004602052604090205460ff1615806105bf57506001600160a01b03851660009081526004602052604090205460ff16155b156105ce5760009150506105f8565b80608001518310806105e357508060a0015183115b156105f25760009150506105f8565b60019150505b949350505050565b6001600160a01b03821660009081526002602052604081205460ff1615610629575060006103ff565b600080516020610f89833981519152600052600360209081526040805160c0810182527ff5f2164005cf7f4c7dd595e6c245946d1c10feb5297ef95390becdaf9b4340625460ff80821615158352610100820481161580159584018690526201000083048216151594840194909452630100000090910416151560608201527ff5f2164005cf7f4c7dd595e6c245946d1c10feb5297ef95390becdaf9b4340635460808201527ff5f2164005cf7f4c7dd595e6c245946d1c10feb5297ef95390becdaf9b4340645460a0820152919061071b57506001600160a01b03841660009081526001602052604090205460ff16155b1561072a5760009150506103ff565b8051801561075157506001600160a01b03841660009081526004602052604090205460ff16155b156107605760009150506103ff565b5060019392505050565b60008281526020819052604090206001015461078581610bb4565b61078f8383610bc1565b50505050565b6001600160a01b03811633146107be5760405163334bd91960e11b815260040160405180910390fd5b6107c88282610c53565b505050565b600080516020610fa98339815191526107e581610bb4565b506001600160a01b03166000908152600460205260409020805460ff19166001179055565b600080516020610fa983398151915261082281610bb4565b506001600160a01b03166000908152600460205260409020805460ff19169055565b600080516020610fa983398151915261085c81610bb4565b6001600160a01b03821660009081526002602052604090205460ff16156108d85760405162461bcd60e51b815260206004820152602560248201527f4d61726b6574706c61636547756172643a205573657220697320626c61636b6c6044820152641a5cdd195960da1b60648201526084015b60405180910390fd5b6001600160a01b0382166000818152600160208190526040808320805460ff1916909217909155513392917f4bc18aa4b0095c9a3b5cdf42d2322d5a145591b04045988a995a5da42607545791a35050565b6000918252602082815260408084206001600160a01b0393909316845291905290205460ff1690565b6001600160a01b03821660009081526002602052604081205460ff161561097c575060006103ff565b600080516020610f89833981519152600052600360209081526040805160c0810182527ff5f2164005cf7f4c7dd595e6c245946d1c10feb5297ef95390becdaf9b4340625460ff8082161515835261010082048116151594830194909452620100008104841615159282019290925263010000009091049091161515606082018190527ff5f2164005cf7f4c7dd595e6c245946d1c10feb5297ef95390becdaf9b4340635460808301527ff5f2164005cf7f4c7dd595e6c245946d1c10feb5297ef95390becdaf9b4340645460a0830152610a5b5760009150506103ff565b8060200151801561071b57506001600160a01b03841660009081526001602052604090205460ff1661072a5760009150506103ff565b7f2724e1c963eb1465b51230910d2ca7be74b71883f8cab72076d8c12e086c2b48610abb81610bb4565b60008381526003602052604090208290610ad58282610e67565b905050827f0f32541e4c1ce5043a32c5fedd8acbebd62c54c47bcf4ecd5dd340dc423e6e6883604051610b089190610f1a565b60405180910390a2505050565b600082815260208190526040902060010154610b3081610bb4565b61078f8383610c53565b600080516020610fa9833981519152610b5281610bb4565b6001600160a01b03821660008181526002602090815260408083208054600160ff19918216811790925592528083208054909216909155513392917fb238e099a93706e73d75fdb8fb35f9a0a146e80ead15480e50fbc9db1736aa0491a35050565b610bbe8133610cbe565b50565b6000610bcd838361092a565b610c4b576000838152602081815260408083206001600160a01b03861684529091529020805460ff19166001179055610c033390565b6001600160a01b0316826001600160a01b0316847f2f8788117e7eff1d82e926ec794901d17c78024a50270940304540a733656f0d60405160405180910390a45060016103ff565b5060006103ff565b6000610c5f838361092a565b15610c4b576000838152602081815260408083206001600160a01b0386168085529252808320805460ff1916905551339286917ff6391f5c32d9c69d2a47ea670b442974b53935d1edc7fd64eb21e047a839171b9190a45060016103ff565b610cc8828261092a565b610cf75760405163e2517d3f60e01b81526001600160a01b0382166004820152602481018390526044016108cf565b5050565b600060208284031215610d0d57600080fd5b81356001600160e01b031981168114610d2557600080fd5b9392505050565b80356001600160a01b0381168114610d4357600080fd5b919050565b60008060008060808587031215610d5e57600080fd5b610d6785610d2c565b9350610d7560208601610d2c565b93969395505050506040820135916060013590565b600060208284031215610d9c57600080fd5b5035919050565b60008060408385031215610db657600080fd5b610dbf83610d2c565b946020939093013593505050565b60008060408385031215610de057600080fd5b82359150610df060208401610d2c565b90509250929050565b600060208284031215610e0b57600080fd5b610d2582610d2c565b60008082840360e0811215610e2857600080fd5b8335925060c0601f1982011215610e3e57600080fd5b506020830190509250929050565b8015158114610bbe57600080fd5b600081356103ff81610e4c565b8135610e7281610e4c565b815460ff19811691151560ff1691821783556020840135610e9281610e4c565b61ffff199190911690911790151560081b61ff0016178155610ed5610eb960408401610e5a565b82805462ff0000191691151560101b62ff000016919091179055565b610f02610ee460608401610e5a565b82805463ff000000191691151560181b63ff00000016919091179055565b6080820135600182015560a082013560028201555050565b60c081018235610f2981610e4c565b151582526020830135610f3b81610e4c565b151560208301526040830135610f5081610e4c565b151560408301526060830135610f6581610e4c565b8015156060840152506080830135608083015260a083013560a08301529291505056fe7a7b4e2afa09b860612e97c3a767b18dbe6cbf25c966035cc8fa981f9c94920ba49807205ce4d355092ef5a8a18f56e8913cf4a201fbe287825b095693c21775a26469706673582212207f4cf4e1ea481229b3e6304ca03c972ad335fce58c4f8a5648d230269079f14f64736f6c63430008140033",
  "linkReferences": {},
  "deployedLinkReferences": {}
}